:100000000C943E000C945B000C945B000C94060472
:100010000C9431040C9475050C944B040C945B0403
:100020000C945B000C945B000C945B000C945B00E4
:100030000C945B000C9495040C945B000C945B0096
:100040000C945B000C945B000C945B000C945B00C4
:100050000C94280A0C945B000C945B000C945B00DD
:100060000C945B000C945B000C941C090C945B00DA
:100070000C94EF0A0C945B000C945B0011241FBEDF
:10008000CFEFD0E1DEBFCDBF12E0A0E0B1E0E0E80D
:10009000F3E202C005900D92A03BB107D9F713E03F
:1000A000A0EBB2E001C01D92AC37B107E1F70E94AE
:1000B00049010C94BE110C9400000F9380917303BE
:1000C00090917403815D9740A8F08AE060E042E07F
:1000D0002AE500E00E94A2081092740310927303B4
:1000E000809168038F7D809368031092250310929E
:1000F00026033EC090912703892F857121F48091BA
:1001000025038823A1F080916803806280936803AF
:1001100080912503882339F08AE060E045E02EE7EE
:1001200006E00E94A20881E08093250321C09A7214
:1001300021F4809126038823A1F0809168038062D6
:100140008093680380912603882339F08AE060E079
:1001500044E02EE706E00E94A20881E08093260397
:1001600007C08AE060E042E02AE500E00E94A208C1
:100170000F9108950F938091710390917203895E9E
:10018000934038F08AE060E041E020E000E00E9427
:10019000A2080F9108950F93262F042F1092240385
:1001A0008230B1F0833028F4882351F0813009F592
:1001B0000BC08430A9F0843078F08630D1F416C0BA
:1001C0008AE060E041E00FC08AE060E042E00BC0FE
:1001D0008AE060E043E007C08AE060E044E003C0FA
:1001E0008AE060E045E00E94A20803C081E08093BD
:1001F00024030F9108950E94470481709091270372
:100200009E7F982B909327030E9442048170880F51
:10021000909127039D7F982B909327030E9486033C
:100220008170880F880F909127039B7F982B909364
:10023000270381E090E00E942D050E940603817053
:10024000880F880F880F90912703977F982B9093A2
:10025000270381E090E00E942D050E94C603817073
:100260008295807F909127039F7E982B9093270300
:1002700081E090E00E942D050E94460381708295E6
:10028000880F807E909127039F7D982B9093270362
:1002900008951F9312B88BE185B98CEF88B981E777
:1002A0008BB911B88BEB84B980EC87B98AE78AB92E
:1002B00060E875E280E090E00E94960960E875E2EF
:1002C00080E090E00E94BA090E9484048AE20E94C1
:1002D0003F060E94AB020E94FE028091730080687C
:1002E000809373008091680088608093680080E24A
:1002F0008093690084E08DBB78940E9490040E94F2
:100300005D0284EF91E00E942D0580E091E00E9463
:10031000FF0978948BE192E00E9458068DE292E00A
:100320000E94520687E392E00E945604809168037F
:10033000886080936803809168038061809368037C
:1003400081E00E94A60282E062E340E00E94CB00CE
:1003500084EF91E00E942D0583E062E340E00E947B
:10036000CB0080E10E94A60288EE93E00E942D055A
:1003700081E060E040E00E94CB0084E690E00E94D3
:100380002D0582E00E94A60284E062E340E00E9424
:10039000CB0084EF91E00E942D0585E062E340E010
:1003A0000E94CB0080E20E94A60288EE93E00E94A9
:1003B0002D0581E060E040E00E94CB0084E690E003
:1003C0000E942D058FE30E94A60281E08093240302
:1003D00011E080916F039091700385369105B8F01C
:1003E0008091B002882399F41093B0028AE060E013
:1003F0000E940C088AE060E049E253E024E10E9498
:100400004D071092B0021092700310926F030E9479
:100410006D060E94FB000E94BA008091240388238D
:10042000C1F28091710390917203885E934088F6C7
:100430000E945D00CECF1F93182F8091B1028F5F75
:100440008093B10285E191E00E94FF09812F0E9413
:10045000E5091092B0021F910895882339F489E2CA
:1004600093E064E10E9430071092B00208958091F9
:10047000B002882359F44F9B09C081E08093B002F9
:100480008AE060E040E024E10E940B07089583E5E4
:100490008CBD809128038EBD0DB407FEFDCF1CBC22
:1004A00085B185B92E9A80E090E00000019621E0A8
:1004B0008C329207D1F72E9808950F931F9300E086
:1004C0008091280381608093280310E00BC0109274
:1004D0007A03109279038091790390917A030A97B5
:1004E000D0F302C024E630E0215030408FEF2F3FA0
:1004F000380769F70E94470280912803880F80938C
:1005000028031F5F163071F70F5F0330C9F68FE3C2
:10051000809328030E94470224EF31E00AC0109222
:100520007A03109279038091790390917A030A9764
:10053000D0F3215030408FEF2F3F380781F71092D2
:1005400028030E9447021F910F910895809328036A
:100550000E944702089580E280937C0084EE80939D
:100560007A0010927B000895109278001092790022
:1005700090917C00907290937C0090917C00982BDD
:1005800090937C0080E090E00000019621E08C32A6
:100590009207D1F780917A00806480937A008091ED
:1005A0007A0084FFFCCF80917A00806180937A008A
:1005B00080917900089580E00E94B402089583E05C
:1005C0000E94B40290E0AA2797FDA095BA2FBC0123
:1005D000CD010E94790E2DEC3CEC4CEC5FE30E94C7
:1005E0004F0D0E94790BDC01CB01089581E00E9440
:1005F000B402089582E00E94B402089582E584BDA9
:1006000082E085BD82E287BD88BD089510925203C5
:100610001092510310925303479820E052E132E4C4
:1006200042E054BD34BD10927A0310927903809158
:10063000790390917A030297D0F344BD34BD1092B0
:100640007A03109279038091790390917A0302974B
:10065000D0F32F5F2E3129F720E030E08091530353
:10066000843038F03093520320935103479A81E04D
:1006700008952F5F3F4FC9010197409778F330935A
:10068000520320935103479A80E008951092520339
:100690001092510310925303469820E052E132E445
:1006A00042E054BD34BD10927A03109279038091D8
:1006B000790390917A030297D0F344BD34BD109230
:1006C0007A03109279038091790390917A030297CB
:1006D000D0F32F5F2E3129F720E030E080915303D3
:1006E000843038F03093520320935103469A81E0CE
:1006F00008952F5F3F4FC9010197409778F33093DA
:10070000520320935103469A80E0089510925203B9
:1007100010925103109253035E9820E052E132E4AC
:1007200042E054BD34BD10927A0310927903809157
:10073000790390917A030297D0F344BD34BD1092AF
:100740007A03109279038091790390917A0302974A
:10075000D0F32F5F2E3129F720E030E08091530352
:10076000843038F030935203209351035E9A81E035
:1007700008952F5F3F4FC9010197409778F3309359
:100780005203209351035E9A80E008951092520321
:1007900010925103109253035D9820E052E132E42D
:1007A00042E054BD34BD10927A03109279038091D7
:1007B000790390917A030297D0F344BD34BD10922F
:1007C0007A03109279038091790390917A030297CA
:1007D000D0F32F5F2E3129F720E030E080915303D2
:1007E000843038F030935203209351035D9A81E0B6
:1007F00008952F5F3F4FC9010197409778F33093D9
:100800005203209351035D9A80E008951F920F9246
:100810000FB60F9211248F93809153038F5F8093B3
:1008200053038F910F900FBE0F901F901895E8E61D
:10083000F0E080818E6080838BB38BBBEBE6F0E0D1
:1008400080818083ECE6F0E0808183608083EDE648
:10085000F0E080818083E3E7F0E08081806880833E
:1008600008951F920F920FB60F9211248F938091CB
:1008700053038F5F809353038F910F900FBE0F90A0
:100880001F90189583B1869580958170089583B1E6
:100890008095817008951F920F920FB60F921124C8
:1008A0000F900FBE0F901F90189508959093A1017F
:1008B0008093A00108951F920F920FB60F921124FA
:1008C0002F933F934F935F936F937F938F939F9358
:1008D000AF93BF93EF93FF934F9B05C0E091A001AF
:1008E000F091A1010995FF91EF91BF91AF919F9177
:1008F0008F917F916F915F914F913F912F910F90C9
:100900000FBE0F901F901895109280008AE0809380
:10091000810089EF90E0909389008093880008958A
:1009200082E080936F00789408951F920F920FB623
:100930000F9211248F939F938091790390917A0362
:10094000019690937A038093790380917B038F5F64
:1009500080937B0381508A3008F46AC080916803D9
:1009600080FF09C08091690390916A03019690937A
:100970006A03809369038091680381FF09C08091B5
:100980006B0390916C03019690936C0380936B03BF
:100990008091680382FF09C080916D0390916E037E
:1009A000019690936E0380936D038091680383FF9B
:1009B00009C080916F03909170030196909370032A
:1009C00080936F038091680384FF09C08091710355
:1009D00090917203019690937203809371038091BA
:1009E000680385FF09C08091730390917403019699
:1009F00090937403809373038091680386FF09C00A
:100A0000809175039091760301969093760380937D
:100A100075038091680387FF09C0809177039091E7
:100A200078030196909378038093770310927B0369
:100A30009F918F910F900FBE0F901F90189510925D
:100A40007A0310927903282F30E0809179039091F6
:100A50007A0382179307C8F308959C010CC0109283
:100A60007A03109279038091790390917A030A971F
:100A7000D0F3215030402115310589F7089512B87F
:100A80008BE185B98CEF88B981E78BB911B88BEB15
:100A900084B980EC87B98AE78AB960E875E280E0BA
:100AA00090E00E94960960E875E280E090E00E9484
:100AB000BA095C9A109280008AE08093810089EFE5
:100AC00090E0909389008093880080E280937C007E
:100AD00084EE80937A0010927B000E94170482E0DB
:100AE00080936F0078947894089578941F920F9271
:100AF0000FB60F9211242F933F934F935F936F93F1
:100B00007F938F939F93AF93BF93EF93FF93189926
:100B10002BC08091680320916B0330916C03482FA8
:100B200050E056954795409550954170507080E043
:100B300090E02531310510F081E090E0482B592BF1
:100B40008091B20291E08927842399F110926C037D
:100B500010926B0380916803826080936803909386
:100B6000B20280E391E023C02091680380916B037F
:100B700090916C0326952095217030E0459708F000
:100B800031E0232B30E08091B20290E0282339231A
:100B9000232B79F010926C0310926B038091680301
:100BA0008260809368031092B2028BE491E00E940D
:100BB000FF0919992DC08091680320916D03309130
:100BC0006E03482F50E056954795569547954095AA
:100BD00050954170507080E090E02531310510F063
:100BE00081E090E0482B592B8091B30291E0892756
:100BF0008423A1F110926E0310926D03809168031B
:100C00008460809368039093B30288E691E024C0E7
:100C10002091680380916D0390916E03269526952F
:100C20002095217030E0459708F031E0232B30E02B
:100C30008091B30290E028233923232B79F010927E
:100C40006E0310926D038091680384608093680343
:100C50001092B30283E891E00E94FF09FF91EF91A7
:100C6000BF91AF919F918F917F916F915F914F91C4
:100C70003F912F910F900FBE0F901F901895F894F1
:100C80008093B8001092B9008FEF8093BB0084E08E
:100C90008093BC008091B40281608093B402789408
:100CA000089508959093A3018093A2010895089553
:100CB0009093A5018093A4010895DF93CF930F92A1
:100CC000CDB7DEB786E989838981815089838F5FBB
:100CD000D9F70F90CF91DF910895DF93CF930F92C3
:100CE000CDB7DEB78091BC0080FD71C08091B402A9
:100CF00080FF50C08091BB02882309F468C0813016
:100D0000D1F486E989838981815089838F5FD9F7FE
:100D100092E09093FD028091B6028093BD02809193
:100D2000B7028093BE021092B40285EA8093BC00A1
:100D30009093BB024CC08230E1F486E989838981BB
:100D4000815089838F5FD9F78091B8028F5F80933C
:100D5000FD028091B60281608093B6028093BD024D
:100D60001092B40285EA8093BC0083E08093BB02BA
:100D70002EC0833061F51092BB028091B902909130
:100D8000BA022FEF8F3F920711F1E091A201F0918B
:100D9000A3011CC08091BC0080FDFCCF9091B502E6
:100DA0009923A9F01092BB028091B40281608093D4
:100DB000B4021092B6021092BA021092B9021092C6
:100DC000B802E091A401F091A501892F09950F9037
:100DD000CF91DF910895FF920F931F93182F062F45
:100DE000F42E02C00E946D068091BC0080FDFACFF7
:100DF0008091BB028823B1F782E08093BB021093FD
:100E0000B6020093B9021092BA02F092B8021F9192
:100E10000F91FF900895EF92FF920F931F93E82E8A
:100E2000162F042FF22E02C00E946D068091BC0086
:100E300080FDFACF8091BB028823B1F781E08093D7
:100E4000BB021093B9021092BA02E092B60200936C
:100E5000B702F092B8021F910F91FF90EF900895A2
:100E60009C018091BC0080FDFCCF8091B40280FF8A
:100E70000CC0EEECF2E0D90170E06E0F7F1F02C0F3
:100E800081918D93E617F707D9F708958091BC00FB
:100E900080FDFCCF8091B5020895FF920F931F93C0
:100EA000CF93DF93082FF62EEA01122F02C00E9483
:100EB0006D068091BC0080FDFACF8091BB02882333
:100EC000B1F781E08093BB020093B6028FEF9FEFF2
:100ED0009093BA028093B902F092B7021093B802CD
:100EE00002C00E946D068091BC0080FDFACF809107
:100EF000BB028823B1F78091B40280FF05C01F5F59
:100F0000CE01612F0E943007DF91CF911F910F9189
:100F1000FF900895EF92FF920F931F93DF93CF936B
:100F20000F92CDB7DEB7082F7B01142F02C00E94AD
:100F30006D068091BC0080FDFACF8091BB028823B2
:100F4000B1F786E989838981815089838F5FD9F7D9
:100F500082E08093BB020093B6028FEF9FEF9093E5
:100F6000BA028093B9021093B80202C00E946D06C3
:100F70008091BC0080FDFACF8091BB028823B1F73D
:100F80008091B40280FF05C01F5FC701612F0E94DE
:100F900030070F90CF91DF911F910F91FF90EF904D
:100FA00008951F93DF93CF930F92CDB7DEB7182F1D
:100FB00002C00E946D068091BC0080FDFACF809136
:100FC000BB028823B1F786E98983898181508983AF
:100FD0008F5FD9F782E08093BB021093B6028FEF48
:100FE0009FEF9093BA028093B90281E08093B80298
:100FF00002C00E946D068091BB028823D1F78091C8
:10100000B40280FD02C080E002C08091CE020F9049
:10101000CF91DF911F9108950F931F93DF93CF938B
:101020000F92CDB7DEB7182F062F02C00E946D06B3
:101030008091BC0080FDFACF8091BB028823B1F77C
:1010400086E989838981815089838F5FD9F782E01E
:101050008093FD021093BD020093BE021092B40271
:1010600085EA8093BC000F90CF91DF911F910F9183
:101070000895FF920F931F93DF93CF930F92CDB7F5
:10108000DEB7182F062FF42E02C00E946D06809145
:10109000BC0080FDFACF8091BB028823B1F786E9BE
:1010A00089838981815089838F5FD9F783E0809319
:1010B000FD021093BD020093BE02F092BF02109297
:1010C000B40285EA8093BC000F90CF91DF911F910D
:1010D0000F91FF900895EF92FF920F931F93DF936C
:1010E000CF930F92CDB7DEB7182F062FF42EE22E36
:1010F00002C00E946D068091BC0080FDFACF8091F5
:10110000BB028823B1F786E989838981815089836D
:101110008F5FD9F784E08093FD021093BD020093A6
:10112000BE02F092BF02E092C0021092B40285EAC1
:101130008093BC000F90CF91DF911F910F91FF9092
:10114000EF900895DF92EF92FF920F931F93DF933A
:10115000CF930F92CDB7DEB7182FF62EE42ED22EF6
:1011600002C00E946D068091BC0080FDFACF809184
:10117000BB028823B1F786E98983898181508983FD
:101180008F5FD9F785E08093FD021093BD02F09246
:10119000BE02E092BF02D092C0020093C102109240
:1011A000B40285EA8093BC000F90CF91DF911F912C
:1011B0000F91FF90EF90DF900895EF92FF920F93C1
:1011C0001F93DF93CF930F92CDB7DEB7082FF62E84
:1011D000E72E142F02C00E946D068091BC0080FD96
:1011E000FACF8091BB028823B1F786E98983898190
:1011F000815089838F5FD9F7412F4F5F4093FD0264
:101200000093BD02AEEBB2E08F2D9E2D9C01F90143
:1012100002C081918D938E2F8F198417D0F3109275
:10122000B40285EA8093BC000F90CF91DF911F91AB
:101230000F91FF90EF9008951F920F920FB60F92AB
:1012400011242F933F938F939F93EF93FF9380915C
:10125000B9008832D1F0893240F48031A1F0883170
:10126000A1F0883009F050C00EC0803459F18134AB
:1012700020F4883309F048C041C08035B9F0883582
:1012800009F042C02DC01092BC029091BC02809126
:10129000FD02981768F5E92FF0E0E354FD4F8081D7
:1012A0008093BB009F5F9093BC0218C08091BC02EA
:1012B0009091BB00E82FF0E0E353FD4F90838F5FE8
:1012C0008093BC022091BC0230E08091FD0290E04E
:1012D00001972817390714F485EC1BC085E819C05D
:1012E0008091BB00E091BC02F0E0E353FD4F8083AE
:1012F0008091B40281608093B4020AC08091B900E9
:101300008093B50285EA05C08091B9008093B5024B
:1013100084E98093BC00FF91EF919F918F913F9161
:101320002F910F900FBE0F901F9018959B01AC014D
:1013300094E0220F331F441F551F9A95D1F760E0A8
:101340007DE281E391E00E94201121503040404035
:1013500050401092C000BB27A52F942F832F80935D
:10136000C5002093C40088E98093C10086E0809383
:10137000C20008959B01AC0174E0220F331F441F8B
:10138000551F7A95D1F760E07DE281E391E00E94FC
:10139000201121503040404050401092C800BB27DF
:1013A000A52F942F832F8093CD002093CC0088E924
:1013B0008093C90086E08093CA0008958091C000A0
:1013C00087FFFCCF8091C6000895982F8091C000C0
:1013D00085FFFCCF9093C6000895FC01E40FF11D3A
:1013E00008C08091C00085FFFCCF31969093C60065
:1013F00061509081992311F0662399F70895FC01BB
:1014000007C08091C00085FFFCCF9093C600319645
:1014100090819923B1F708958091C80087FFFCCF90
:101420008091CE000895982F8091C80085FFFCCF51
:101430009093CE000895FC0107C08091C80085FFFD
:10144000FCCF9093CE00319690819923B1F7089507
:101450001F920F920FB60F9211240F900FBE0F9094
:101460001F90189508959093A7018093A601089561
:10147000282F8091690390916A03893C9105E0F0DF
:101480001092230310922203109221031092200342
:1014900010921F0380E2EFEFF2E0DF011D928A95C8
:1014A000E9F71092FE02809168038E7F80936803B3
:1014B00010926A031092690380912303823071F1C4
:1014C000833030F4882361F0813009F087C01AC07E
:1014D0008430C9F1843070F1853009F07FC04EC08E
:1014E000213069F420932303809122038F5F80933E
:1014F00022038091680381608093680308951092AD
:10150000230308952F3F39F4809122038F5F809346
:10151000220382E02CC0109223032BC020932103CE
:10152000255020932003809122038F5F8093220314
:1015300083E01DC020931F03809122038F5F80935F
:10154000220384E014C09091FE02E92FF0E0E15004
:10155000FD4F20839F5F9093FE02809122038F5F57
:101560008093220380912003981719F485E08093DB
:10157000230310926A031092690308959091220345
:101580009F5F90932203243069F480912103981780
:1015900049F4E091A601F091A70180911F036FEF3C
:1015A00072E00995109223031092220310922103F6
:1015B0001092200310921F0380E2EFEFF2E0DF01B0
:1015C0001D928A95E9F71092FE02809168038E7F42
:1015D0008093680310926A031092690308951F9222
:1015E0000F920FB60F9211242F933F934F935F9357
:1015F0006F937F938F939F93AF93BF93EF93FF93DB
:101600008091CE000E94380AFF91EF91BF91AF9177
:101610009F918F917F916F915F914F913F912F910A
:101620000F900FBE0F901F9018950F931F93DF938D
:10163000CF93CDB7DEB761970FB6F894DEBF0FBE7C
:10164000CDBF462F8E010F5F1F4FB80150E00E94A3
:101650007911C8010E94FF0961960FB6F894DEBFA8
:101660000FBECDBFCF91DF911F910F910895FF92D3
:101670000F931F93DF93CF93CDB7DEB761970FB66C
:10168000F894DEBF0FBECDBF262FF42E8E010F5F64
:101690001F4FB801422F50E00E947911F8010190CC
:1016A0000020E9F73197E01BF10B4F2D4E1B14166C
:1016B0007CF490E341508091C00085FFFCCF909373
:1016C000C6004423B9F7CE0101960E94FF0905C068
:1016D0004195C8016F2D0E94ED0961960FB6F894EF
:1016E000DEBF0FBECDBFCF91DF911F910F91FF9055
:1016F0000895EF92FF920F931F937B018C0120E0DE
:1017000030E040E05FE40E94490E88238CF0C8017D
:10171000B70120E030E040E05FE40E94F10C0E945D
:10172000D70E9B01AC01205030404040504806C0CD
:10173000C801B7010E94D70E9B01AC01B901CA01D3
:101740001F910F91FF90EF900895A0E0B0E0EBEAB9
:10175000FBE00C944211DC012B01FA019C919230C8
:1017600008F439C1EB018881823008F433C1943028
:1017700069F4843009F02FC111969C9111978981E9
:10178000981709F428C1A8EAB1E025C1843009F40A
:1017900021C18230A9F4923009F01DC19A01AD0136
:1017A00088E0EA010990AE01E90109929E018150A9
:1017B000C1F7E201898111969C918923818308C137
:1017C000923009F407C112962D903C901397EB01CB
:1017D0008A819B811496AD90BD90CD90DC90179737
:1017E000EC80FD800E811F819101281B390BB9010E
:1017F00037FF04C066277727621B730B60327105C1
:101800000CF061C0121613066CF537014801062E64
:1018100004C096948794779467940A94D2F721E051
:1018200030E040E050E004C0220F331F441F551F3A
:101830006A95D2F721503040404050402E213F2140
:1018400040235123211531054105510521F021E0A7
:1018500030E040E050E079018A01E628F7280829C5
:1018600019293CC0232BD1F1260E371E3501460124
:10187000062E04C096948794779467940A94D2F7BE
:1018800021E030E040E050E004C0220F331F441F4D
:10189000551F6A95D2F721503040404050402A21D0
:1018A0003B214C215D21211531054105510521F0D8
:1018B00021E030E040E050E059016A01A628B72855
:1018C000C828D9280BC0821593052CF01C01AA2426
:1018D000BB24650103C0EE24FF24870111969C916F
:1018E000D20111968C91981709F445C0992339F0CB
:1018F000A80197012A193B094C095D0906C0A601F8
:1019000095012E193F09400B510B57FD08C011825C
:101910003382228224833583468357831DC081E02E
:1019200081833382228288279927DC01821B930BD3
:10193000A40BB50B84839583A683B7830DC0220FB8
:10194000331F441F551F2483358346835783828169
:1019500093810197938382832481358146815781C6
:10196000DA01C9010197A109B1098F5F9F4FAF4FFC
:10197000BF4328F30BC0918333822282EA0CFB1C05
:101980000C1D1D1DE482F5820683178383E080838E
:10199000248135814681578157FF1AC0C901AA2782
:1019A00097FDA095BA2F81709070A070B070569579
:1019B000479537952795822B932BA42BB52B8483A2
:1019C0009583A683B78382819381019693838283D3
:1019D000DF0101C0D201CD01CDB7DEB7E2E10C9449
:1019E0005E11A0E2B0E0E7EFFCE00C944E116983D9
:1019F0007A838B839C832D833E834F835887E9E0D2
:101A0000EE2EF12CEC0EFD1ECE010196B7010E94C8
:101A10004F108E010F5E1F4FCE010596B8010E9438
:101A20004F108A8991E089278A8BC701B801AE01DE
:101A3000475E5F4F0E94A50B0E947A0FA096E6E0DA
:101A40000C946A11A0E2B0E0E8E2FDE00C944E11C3
:101A500069837A838B839C832D833E834F8358874E
:101A6000F9E0EF2EF12CEC0EFD1ECE010196B70130
:101A70000E944F108E010F5E1F4FCE010596B801D8
:101A80000E944F10C701B801AE01475E5F4F0E9430
:101A9000A50B0E947A0FA096E6E00C946A11A0E2D2
:101AA000B0E0E5E5FDE00C94421169837A838B8315
:101AB0009C832D833E834F835887CE010196BE01C0
:101AC000675F7F4F0E944F10CE010596BE016F5E8B
:101AD0007F4F0E944F109985923088F0898982301B
:101AE000C8F0943019F4823051F404C0843029F4E1
:101AF000923081F488EA91E0C6C0923049F420E047
:101B00009A858A89981321E02A87CE010996BBC05D
:101B1000823049F420E09A858A89981321E02A8B43
:101B2000CE014196B0C02D843E844F8458886D8884
:101B30007E888F88988CEE24FF248701AA24BB24FA
:101B4000650140E050E060E070E0E0E0F0E0C101FD
:101B500081709070892BE9F0E60CF71C081D191DA7
:101B60009A01AB012A0D3B1D4C1D5D1D80E090E0EC
:101B7000A0E0B0E0E614F7040805190520F481E0C0
:101B800090E0A0E0B0E0BA01A901480F591F6A1F18
:101B90007B1FAA0CBB1CCC1CDD1C97FE08C081E07F
:101BA00090E0A0E0B0E0A82AB92ACA2ADB2A319640
:101BB000E032F10549F0660C771C881C991C56949C
:101BC000479437942794C3CFFA85EA892B893C89B7
:101BD0008B859C85280F391F2E5F3F4F17C0CA0188
:101BE00081709070892B61F016950795F794E794B2
:101BF00080E090E0A0E0B0E8E82AF92A0A2B1B2B4D
:101C000076956795579547952F5F3F4F77FDE7CFBF
:101C10000CC0440F551F661F771F17FD4160EE0C67
:101C2000FF1C001F111F21503040403090E0590729
:101C300090E0690790E4790760F32B8F3C8FDB011C
:101C4000CA018F779070A070B07080349105A105A3
:101C5000B10561F447FD0AC0E114F1040105110565
:101C600029F0405C5F4F6F4F7F4F40781A8EFE1710
:101C700011F081E08A8F4D8F5E8F6F8F78A383E0A4
:101C8000898FCE0149960E947A0FA096E2E10C94CA
:101C90005E11A8E1B0E0EFE4FEE00C944E11698320
:101CA0007A838B839C832D833E834F83588789E07F
:101CB000E82EF12CEC0EFD1ECE010196B7010E941C
:101CC0004F108E010F5E1F4FCE010596B8010E9486
:101CD0004F108985823040F08989823028F0C70111
:101CE000B8010E94C71001C08FEF6896E6E00C941F
:101CF0006A11A8E0B0E0EFE7FEE00C944B119B0105
:101D0000AC0183E08983DA01C9018827B7FD839597
:101D10009927AA27BB27B82E211531054105510562
:101D200019F482E089833AC08823A9F0203080E04A
:101D3000380780E0480780E8580729F460E070E041
:101D400080E09FEC30C0EE24FF248701E21AF30A02
:101D5000040B150B02C079018A018EE1C82ED12C2B
:101D6000DC82CB82ED82FE820F831887C801B70127
:101D70000E942B0F01971816190684F4082E04C030
:101D8000EE0CFF1C001F111F0A94D2F7ED82FE8299
:101D90000F831887C81AD90ADC82CB82BA82CE0197
:101DA00001960E947A0F2896E9E00C946711ACE046
:101DB000B0E0EDEDFEE00C94521169837A838B83E1
:101DC0009C83CE010196BE016B5F7F4F0E944F1036
:101DD0008D81823061F1823050F1843021F48E8126
:101DE000882351F12EC02F81388537FD20C06E81A8
:101DF0002F3131051CF06623F9F023C08EE190E00D
:101E0000821B930B29853A854B855C8504C05695CA
:101E10004795379527958A95D2F76623B1F0509567
:101E20004095309521953F4F4F4F5F4F0EC020E0BA
:101E300030E040E050E009C02FEF3FEF4FEF5FE7A9
:101E400004C020E030E040E050E8B901CA012C961F
:101E5000E2E00C946E11EF92FF920F931F937B01BF
:101E60008C0180E0E81680E0F80681E0080780E059
:101E7000180788F48FEFE816F1040105110531F019
:101E800028F088E090E0A0E0B0E017C080E090E0AB
:101E9000A0E0B0E012C080E0E81680E0F80680E044
:101EA000080781E0180728F088E190E0A0E0B0E0A2
:101EB00004C080E190E0A0E0B0E020E230E040E04B
:101EC00050E0281B390B4A0B5B0B04C01695079595
:101ED000F794E7948A95D2F7F701E055FE4F808199
:101EE000281B310941095109C9011F910F91FF9028
:101EF000EF900895DF92EF92FF920F931F93FC01F2
:101F0000E480F58006811781D1808081823048F499
:101F100080E090E0A0E1B0E0E82AF92A0A2B1B2B30
:101F2000A5C0843009F49FC0823021F4EE24FF2440
:101F3000870105C0E114F1040105110519F4E0E081
:101F4000F0E096C0628173819FEF623879070CF0F0
:101F50005BC022E83FEF261B370B2A3131052CF0FE
:101F600020E030E040E050E02AC0B801A701022E96
:101F700004C076956795579547950A94D2F781E006
:101F800090E0A0E0B0E004C0880F991FAA1FBB1F1B
:101F90002A95D2F70197A109B1098E219F21A0238B
:101FA000B1230097A105B10521F081E090E0A0E008
:101FB000B0E09A01AB01282B392B4A2B5B2BDA01BD
:101FC000C9018F779070A070B07080349105A10521
:101FD000B10539F427FF09C0205C3F4F4F4F5F4FD9
:101FE00004C0215C3F4F4F4F5F4FE0E0F0E02030F6
:101FF000A0E03A07A0E04A07A0E45A0710F0E1E0A9
:10200000F0E079018A0127C06038710564F5FB01B1
:10201000E158FF4FD801C7018F779070A070B07062
:1020200080349105A105B10539F4E7FE0DC080E4C7
:1020300090E0A0E0B0E004C08FE390E0A0E0B0E06A
:10204000E80EF91E0A1F1B1F17FF05C016950795FE
:10205000F794E794319687E016950795F794E794FF
:102060008A95D1F705C0EE24FF248701EFEFF0E059
:102070006E2F679566276795902F9F77D794DD24FD
:10208000D7948E2F8695492F462B582F5D29B7015F
:10209000CA011F910F91FF90EF90DF900895FC010E
:1020A000DB01408151812281622F6F7770E0221F16
:1020B0002227221F9381892F880F822B282F30E01F
:1020C000991F9927991F11969C93119721153105F6
:1020D000A9F5411551056105710511F482E037C07C
:1020E00082E89FEF13969C938E9312979A01AB010F
:1020F00067E0220F331F441F551F6A95D1F783E015
:102100008C930DC0220F331F441F551F12968D91C3
:102110009C911397019713969C938E93129720305E
:1021200080E0380780E0480780E4580758F31496A9
:102130002D933D934D935C93179708952F3F310551
:1021400079F4411551056105710519F484E08C930A
:10215000089564FF03C081E08C9312C01C9210C0EC
:102160002F57304013963C932E93129783E08C9315
:1021700087E0440F551F661F771F8A95D1F770645B
:1021800014964D935D936D937C93179708951F93C9
:10219000DC01FB019C91923008F447C080818230C1
:1021A00008F443C0943051F411961C91843099F591
:1021B0008181682F70E0611B71093FC0843021F07C
:1021C000923031F48230B9F18181882389F12DC0B8
:1021D00011961C9111978230F1F081811817D9F472
:1021E00012962D913C9113978281938182179307C8
:1021F00094F028173907BCF014968D919D910D909D
:10220000BC91A02D2481358146815781281739073B
:102210004A075B0718F4112341F00AC0821793079D
:10222000A407B50740F4112319F061E070E005C080
:102230006FEF7FEF02C060E070E0CB011F91089567
:10224000A1E21A2EAA1BBB1BFD010DC0AA1FBB1FBA
:10225000EE1FFF1FA217B307E407F50720F0A21B2C
:10226000B30BE40BF50B661F771F881F991F1A9499
:1022700069F760957095809590959B01AC01BD01C3
:10228000CF0108952F923F924F925F926F927F926B
:102290008F929F92AF92BF92CF92DF92EF92FF9276
:1022A0000F931F93CF93DF93CDB7DEB7CA1BDB0B22
:1022B0000FB6F894DEBF0FBECDBF09942A883988C7
:1022C00048885F846E847D848C849B84AA84B984CE
:1022D000C884DF80EE80FD800C811B81AA81B981DA
:1022E000CE0FD11D0FB6F894DEBF0FBECDBFED01EE
:1022F0000895FB019F01E8944230C4F04532B4F4E4
:102300004A3029F497FB1EF4909581959F4F642FD6
:1023100077270E94AA11805D8A330CF0895D819332
:10232000CB010097A1F716F45DE251931082C90129
:102330000C949A11DC01FC01672F71917723E1F76E
:10234000329704C07C916D9370836291AE17BF0782
:10235000C8F30895AA1BBB1B51E107C0AA1FBB1FEE
:10236000A617B70710F0A61BB70B881F991F5A9521
:10237000A9F780959095BC01CD010895F894FFCF01
:10238000476573746172742057696C642054687572
:102390006D706572000A493243204552524F5220F7
:1023A0002D205457492053544154453A2030780049
:1023B00042756D70657220537769746368203120AF
:1023C00050726573736564200D0A0042756D706507
:1023D0007220537769746368203120556E7072657E
:1023E00073736564200D0A0042756D706572205329
:1023F0007769746368203220507265737365642056
:102400000D0A0042756D70657220537769746368B8
:10241000203220556E70726573736564200D0A005A
:10242000550451065706320A000000000000000063
:10243000000102020303030304040404040404046B
:10244000050505050505050505050505050505053C
:10245000060606060606060606060606060606061C
:10246000060606060606060606060606060606060C
:1024700007070707070707070707070707070707EC
:1024800007070707070707070707070707070707DC
:1024900007070707070707070707070707070707CC
:1024A00007070707070707070707070707070707BC
:1024B000080808080808080808080808080808089C
:1024C000080808080808080808080808080808088C
:1024D000080808080808080808080808080808087C
:1024E000080808080808080808080808080808086C
:1024F000080808080808080808080808080808085C
:10250000080808080808080808080808080808084B
:10251000080808080808080808080808080808083B
:10252000080808080808080808080808080808082B
:00000001FF
