:100000000C943E000C945B000C945B000C949302E7
:100010000C94BE020C94D8020C948A030C949A039C
:100020000C945B000C945B000C945B000C945B00E4
:100030000C945B000C94D4030C945B000C945B0058
:100040000C945B000C945B000C945B000C945B00C4
:100050000C943A050C945B000C945B000C945B00D0
:100060000C945B000C945B000C945B000C945B00A4
:100070000C9401060C945B000C945B0011241FBED1
:10008000CFEFD0E1DEBFCDBF12E0A0E0B1E0E4EA07
:10009000F9E102C005900D92AC37B107D9F712E033
:1000A000ACE7B2E001C01D92A03CB107E1F70E94AD
:1000B0005D000C94D00C0C940000CF93DF9312B829
:1000C0008BE185B98CEF88B981E78BB911B88BEBDF
:1000D00084B980EC87B98AE78AB960E875E280E084
:1000E00090E00E94A8040E94C3030E94CF0378946A
:1000F00080E091E00E94110585E191E00E941105E8
:10010000C0E0D0E0C436D10508F586E391E00E9456
:100110001105CE0162E00E94270680E491E00E9472
:100120001105CE0168E00E94270689E491E00E9453
:100130001105CE016AE00E94270682E591E00E9447
:100140001105CE0160E10E94270624C083E691E0FC
:100150000E941105CE0162E040E10E94490680E460
:1001600091E00E941105CE0168E046E00E94490638
:1001700089E491E00E941105CE016AE046E00E9408
:10018000490682E591E00E941105CE0160E144E05C
:100190000E9449068BE591E00E941105219684E6B4
:1001A00090E00E946C04AECF83E58CBD8091A802E4
:1001B0008EBD0DB407FEFDCF1CBC85B185B92E9A4E
:1001C00080E090E00000019621E08C329207D1F7A8
:1001D0002E9808950F931F9300E08091A8028160EC
:1001E0008093A80210E00BC01092BE021092BD02D4
:1001F0008091BD029091BE020A97D0F302C024E61E
:1002000030E0215030408FEF2F3F380769F70E94D0
:10021000D4008091A802880F8093A8021F5F163037
:1002200071F70F5F0330C9F68FE38093A8020E9435
:10023000D40024EF31E00AC01092BE021092BD0239
:100240008091BD029091BE020A97D0F321503040B8
:100250008FEF2F3F380781F71092A8020E94D40039
:100260001F910F9108958093A8020E94D4000895D1
:1002700080E280937C0084EE80937A0010927B0071
:100280000895109278001092790090917C009072FD
:1002900090937C0090917C00982B90937C0080E060
:1002A00090E00000019621E08C329207D1F7809116
:1002B0007A00806480937A0080917A0084FFFCCF7A
:1002C00080917A00806180937A008091790008950E
:1002D00080E00E944101089583E00E94410190E086
:1002E000AA2797FDA095BA2FBC01CD010E948B09CA
:1002F0002DEC3CEC4CEC5FE30E9461080E948B0605
:10030000DC01CB01089581E00E944101089582E063
:100310000E944101089582E584BD82E085BD82E2AC
:1003200087BD88BD08951092AA021092A90210926A
:10033000AB02479820E052E132E442E054BD34BDC4
:100340001092BE021092BD028091BD029091BE0239
:100350000297D0F344BD34BD1092BE021092BD028C
:100360008091BD029091BE020297D0F32F5F2E3193
:1003700029F720E030E08091AB02843038F03093F0
:10038000AA022093A902479A81E008952F5F3F4F68
:10039000C9010197409778F33093AA022093A902EC
:1003A000479A80E008951092AA021092A902109232
:1003B000AB02469820E052E132E442E054BD34BD45
:1003C0001092BE021092BD028091BD029091BE02B9
:1003D0000297D0F344BD34BD1092BE021092BD020C
:1003E0008091BD029091BE020297D0F32F5F2E3113
:1003F00029F720E030E08091AB02843038F0309370
:10040000AA022093A902469A81E008952F5F3F4FE8
:10041000C9010197409778F33093AA022093A9026B
:10042000469A80E008951092AA021092A9021092B2
:10043000AB025E9820E052E132E442E054BD34BDAC
:100440001092BE021092BD028091BD029091BE0238
:100450000297D0F344BD34BD1092BE021092BD028B
:100460008091BD029091BE020297D0F32F5F2E3192
:1004700029F720E030E08091AB02843038F03093EF
:10048000AA022093A9025E9A81E008952F5F3F4F50
:10049000C9010197409778F33093AA022093A902EB
:1004A0005E9A80E008951092AA021092A90210921A
:1004B000AB025D9820E052E132E442E054BD34BD2D
:1004C0001092BE021092BD028091BD029091BE02B8
:1004D0000297D0F344BD34BD1092BE021092BD020B
:1004E0008091BD029091BE020297D0F32F5F2E3112
:1004F00029F720E030E08091AB02843038F030936F
:10050000AA022093A9025D9A81E008952F5F3F4FD0
:10051000C9010197409778F33093AA022093A9026A
:100520005D9A80E008951F920F920FB60F921124EA
:100530008F938091AB028F5F8093AB028F910F906E
:100540000FBE0F901F901895E8E6F0E080818E6056
:1005500080838BB38BBBEBE6F0E080818083ECE69D
:10056000F0E0808183608083EDE6F0E0808180832D
:10057000E3E7F0E080818068808308951F920F9206
:100580000FB60F9211248F938091AB028F5F8093EF
:10059000AB028F910F900FBE0F901F90189583B1F3
:1005A000869580958170089583B1809581700895B6
:1005B00078941F920F920FB60F9211242F933F93AE
:1005C0004F935F938F939F93189929C08091AC02AA
:1005D0002091AF023091B002482F50E056954795D8
:1005E000409550954170507080E090E02531310584
:1005F00010F081E090E0482B592B80917C0291E033
:100600008927842369F11092B0021092AF02809181
:10061000AC0282608093AC0290937C0221C0209156
:10062000AC028091AF029091B00226952095217086
:1006300030E0459708F031E0232B30E080917C02D8
:1006400090E028233923232B59F01092B002109206
:10065000AF028091AC0282608093AC0210927C0267
:1006600019992BC08091AC022091B1023091B20255
:10067000482F50E05695479556954795409550958B
:100680004170507080E090E02531310510F081E03C
:1006900090E0482B592B80917D0291E0892784239B
:1006A00071F11092B2021092B1028091AC0284609A
:1006B0008093AC0290937D0222C02091AC02809185
:1006C000B1029091B202269526952095217030E0D6
:1006D000459708F031E0232B30E080917D0290E0D7
:1006E00028233923232B59F01092B2021092B10221
:1006F0008091AC0284608093AC0210927D029F9145
:100700008F915F914F913F912F910F900FBE0F905E
:100710001F9018951F920F920FB60F9211240F90F1
:100720000FBE0F901F9018950895909370018093BD
:100730006F0108951F920F920FB60F9211242F93FD
:100740003F934F935F936F937F938F939F93AF9359
:10075000BF93EF93FF934F9B05C0E0916F01F09122
:1007600070010995FF91EF91BF91AF919F918F918A
:100770007F916F915F914F913F912F910F900FBE9D
:100780000F901F901895109280008AE0809381004E
:1007900089EF90E09093890080938800089582E02B
:1007A00080936F00789408951F920F920FB60F9266
:1007B00011248F939F938091BD029091BE02019668
:1007C0009093BE028093BD028091BF028F5F8093A1
:1007D000BF0281508A3008F46AC08091AC0280FF69
:1007E00009C08091AD029091AE0201969093AE0245
:1007F0008093AD028091AC0281FF09C08091AF026D
:100800009091B00201969093B0028093AF028091D4
:10081000AC0282FF09C08091B1029091B2020196B0
:100820009093B2028093B1028091AC0283FF09C021
:100830008091B3029091B40201969093B402809398
:10084000B3028091AC0284FF09C08091B5029091FF
:10085000B60201969093B6028093B5028091AC02E5
:1008600085FF09C08091B7029091B80201969093DC
:10087000B8028093B7028091AC0286FF09C08091D4
:10088000B9029091BA0201969093BA028093B9028C
:100890008091AC0287FF09C08091BB029091BC029D
:1008A00001969093BC028093BB021092BF029F916D
:1008B0008F910F900FBE0F901F9018951092BE024F
:1008C0001092BD02282F30E08091BD029091BE02AF
:1008D00082179307C8F308959C010CC01092BE02C2
:1008E0001092BD028091BD029091BE020A97D0F392
:1008F000215030402115310589F7089512B88BE158
:1009000085B98CEF88B981E78BB911B88BEB84B9C5
:1009100080EC87B98AE78AB95C9A109280008AE0F5
:100920008093810089EF90E0909389008093880004
:1009300080E280937C0084EE80937A0010927B00AA
:100940000E94A40282E080936F00789478940895C6
:100950009B01AC0194E0220F331F441F551F9A9551
:10096000D1F760E07DE281E391E00E94320C2150FA
:100970003040404050401092C000BB27A52F942F1C
:10098000832F8093C5002093C40088E98093C10021
:1009900086E08093C20008959B01AC0174E0220FB1
:1009A000331F441F551F7A95D1F760E07DE281E344
:1009B00091E00E94320C2150304040405040109253
:1009C000C800BB27A52F942F832F8093CD002093A1
:1009D000CC0088E98093C90086E08093CA0008951E
:1009E0008091C00087FFFCCF8091C6000895982FAA
:1009F0008091C00085FFFCCF9093C6000895FC0154
:100A0000E40FF11D08C08091C00085FFFCCF319636
:100A10009093C60061509081992311F0662399F755
:100A20000895FC0107C08091C00085FFFCCF909322
:100A3000C600319690819923B1F708958091C8003E
:100A400087FFFCCF8091CE000895982F8091C80039
:100A500085FFFCCF9093CE000895FC0107C08091E4
:100A6000C80085FFFCCF9093CE00319690819923EA
:100A7000B1F708951F920F920FB60F9211240F90A5
:100A80000FBE0F901F901895089590937201809358
:100A900071010895282F8091AD029091AE02893C9A
:100AA0009105E0F01092A3021092A2021092A1020E
:100AB0001092A00210929F0280E2EFE7F2E0DF01C5
:100AC0001D928A95E9F710927E028091AC028E7F8A
:100AD0008093AC021092AE021092AD028091A302FC
:100AE000823071F1833030F4882361F0813009F075
:100AF00087C01AC08430C9F1843070F1853009F0A4
:100B00007FC04EC0213069F42093A3028091A202DD
:100B10008F5F8093A2028091AC0281608093AC02CF
:100B200008951092A30208952F3F39F48091A202F4
:100B30008F5F8093A20282E02CC01092A3022BC090
:100B40002093A10225502093A0028091A2028F5FE2
:100B50008093A20283E01DC020939F028091A20295
:100B60008F5F8093A20284E014C090917E02E92FEF
:100B7000F0E0E158FD4F20839F5F90937E028091CB
:100B8000A2028F5F8093A2028091A002981719F4AD
:100B900085E08093A3021092AE021092AD020895F8
:100BA0009091A2029F5F9093A202243069F48091F9
:100BB000A102981749F4E0917101F09172018091BE
:100BC0009F026FE772E009951092A3021092A202B1
:100BD0001092A1021092A00210929F0280E2EFE711
:100BE000F2E0DF011D928A95E9F710927E02809172
:100BF000AC028E7F8093AC021092AE021092AD02D6
:100C000008951F920F920FB60F9211242F933F93C6
:100C10004F935F936F937F938F939F93AF93BF9304
:100C2000EF93FF938091CE000E944A05FF91EF91D0
:100C3000BF91AF919F918F917F916F915F914F91F4
:100C40003F912F910F900FBE0F901F9018950F930B
:100C50001F93DF93CF93CDB7DEB761970FB6F894AC
:100C6000DEBF0FBECDBF462F8E010F5F1F4FB801F5
:100C700050E00E948B0CC8010E94110561960FB6CE
:100C8000F894DEBF0FBECDBFCF91DF911F910F91C2
:100C90000895FF920F931F93DF93CF93CDB7DEB7E5
:100CA00061970FB6F894DEBF0FBECDBF262FF42E8E
:100CB0008E010F5F1F4FB801422F50E00E948B0C36
:100CC000F80101900020E9F73197E01BF10B4F2D5F
:100CD0004E1B14167CF490E341508091C00085FFB8
:100CE000FCCF9093C6004423B9F7CE0101960E9431
:100CF000110505C04195C8016F2D0E94FF04619642
:100D00000FB6F894DEBF0FBECDBFCF91DF911F911C
:100D10000F91FF900895EF92FF920F931F937B0125
:100D20008C0120E030E040E05FE40E945B09882312
:100D30008CF0C801B70120E030E040E05FE40E94A1
:100D400003080E94E9099B01AC012050304040405B
:100D5000504806C0C801B7010E94E9099B01AC01D7
:100D6000B901CA011F910F91FF90EF900895A0E083
:100D7000B0E0EDEBF6E00C94540CDC012B01FA0131
:100D80009C91923008F439C1EB018881823008F4DB
:100D900033C1943069F4843009F02FC111969C91CD
:100DA00011978981981709F428C1A3E7B1E025C1FB
:100DB000843009F421C18230A9F4923009F01DC1B8
:100DC0009A01AD0188E0EA010990AE01E9010992BA
:100DD0009E018150C1F7E201898111969C9189237E
:100DE000818308C1923009F407C112962D903C907E
:100DF0001397EB018A819B811496AD90BD90CD90A5
:100E0000DC901797EC80FD800E811F819101281BDB
:100E1000390BB90137FF04C066277727621B730BB4
:100E2000603271050CF061C0121613066CF53701C3
:100E30004801062E04C096948794779467940A9488
:100E4000D2F721E030E040E050E004C0220F331F31
:100E5000441F551F6A95D2F7215030404040504002
:100E60002E213F21402351232115310541055105F4
:100E700021F021E030E040E050E079018A01E628ED
:100E8000F728082919293CC0232BD1F1260E371E3B
:100E900035014601062E04C0969487947794679492
:100EA0000A94D2F721E030E040E050E004C0220F85
:100EB000331F441F551F6A95D2F7215030404040E0
:100EC00050402A213B214C215D212115310541054E
:100ED000510521F021E030E040E050E059016A0185
:100EE000A628B728C828D9280BC0821593052CF04E
:100EF0001C01AA24BB24650103C0EE24FF24870142
:100F000011969C91D20111968C91981709F445C0C5
:100F1000992339F0A80197012A193B094C095D0969
:100F200006C0A60195012E193F09400B510B57FD34
:100F300008C01182338222822483358346835783FB
:100F40001DC081E081833382228288279927DC01BA
:100F5000821B930BA40BB50B84839583A683B78365
:100F60000DC0220F331F441F551F24833583468332
:100F70005783828193810197938382832481358172
:100F800046815781DA01C9010197A109B1098F5F33
:100F90009F4FAF4FBF4328F30BC091833382228210
:100FA000EA0CFB1C0C1D1D1DE482F58206831783D1
:100FB00083E08083248135814681578157FF1AC0A1
:100FC000C901AA2797FDA095BA2F81709070A070D3
:100FD000B0705695479537952795822B932BA42B68
:100FE000B52B84839583A683B783828193810196F1
:100FF00093838283DF0101C0D201CD01CDB7DEB77B
:10100000E2E10C94700CA0E2B0E0E9E0F8E00C94AE
:10101000600C69837A838B839C832D833E834F830B
:101020005887E9E0EE2EF12CEC0EFD1ECE01019664
:10103000B7010E94610B8E010F5E1F4FCE01059616
:10104000B8010E94610B8A8991E089278A8BC701C8
:10105000B801AE01475E5F4F0E94B7060E948C0A3E
:10106000A096E6E00C947C0CA0E2B0E0EAE3F8E0A5
:101070000C94600C69837A838B839C832D833E83DD
:101080004F835887F9E0EF2EF12CEC0EFD1ECE01B8
:101090000196B7010E94610B8E010F5E1F4FCE01BA
:1010A0000596B8010E94610BC701B801AE01475E09
:1010B0005F4F0E94B7060E948C0AA096E6E00C944F
:1010C0007C0CA0E2B0E0E7E6F8E00C94540C6983F5
:1010D0007A838B839C832D833E834F835887CE01F5
:1010E0000196BE01675F7F4F0E94610BCE0105969E
:1010F000BE016F5E7F4F0E94610B9985923088F030
:1011000089898230C8F0943019F4823051F404C0D7
:10111000843029F4923081F483E791E0C6C09230A4
:1011200049F420E09A858A89981321E02A87CE0124
:101130000996BBC0823049F420E09A858A899813C9
:1011400021E02A8BCE014196B0C02D843E844F848D
:1011500058886D887E888F88988CEE24FF248701BC
:10116000AA24BB24650140E050E060E070E0E0E0CC
:10117000F0E0C10181709070892BE9F0E60CF71C5A
:10118000081D191D9A01AB012A0D3B1D4C1D5D1D4B
:1011900080E090E0A0E0B0E0E614F704080519054F
:1011A00020F481E090E0A0E0B0E0BA01A901480F8E
:1011B000591F6A1F7B1FAA0CBB1CCC1CDD1C97FE91
:1011C00008C081E090E0A0E0B0E0A82AB92ACA2ACD
:1011D000DB2A3196E032F10549F0660C771C881C59
:1011E000991C5694479437942794C3CFFA85EA897B
:1011F0002B893C898B859C85280F391F2E5F3F4F9B
:1012000017C0CA0181709070892B61F016950795FF
:10121000F794E79480E090E0A0E0B0E8E82AF92AAB
:101220000A2B1B2B76956795579547952F5F3F4F58
:1012300077FDE7CF0CC0440F551F661F771F17FDC2
:101240004160EE0CFF1C001F111F21503040403048
:1012500090E0590790E0690790E4790760F32B8FDD
:101260003C8FDB01CA018F779070A070B070803422
:101270009105A105B10561F447FD0AC0E114F1042F
:101280000105110529F0405C5F4F6F4F7F4F40789B
:101290001A8EFE1711F081E08A8F4D8F5E8F6F8F4F
:1012A00078A383E0898FCE0149960E948C0AA0968C
:1012B000E2E10C94700CA8E1B0E0E1E6F9E00C94F6
:1012C000600C69837A838B839C832D833E834F8359
:1012D000588789E0E82EF12CEC0EFD1ECE01019618
:1012E000B7010E94610B8E010F5E1F4FCE01059664
:1012F000B8010E94610B8985823040F08989823073
:1013000028F0C701B8010E94D90B01C08FEF689681
:10131000E6E00C947C0CA8E0B0E0E1E9F9E00C9484
:101320005D0C9B01AC0183E08983DA01C901882748
:10133000B7FD83959927AA27BB27B82E211531051C
:101340004105510519F482E089833AC08823A9F048
:10135000203080E0380780E0480780E8580729F40B
:1013600060E070E080E09FEC30C0EE24FF24870155
:10137000E21AF30A040B150B02C079018A018EE10F
:10138000C82ED12CDC82CB82ED82FE820F8318879F
:10139000C801B7010E943D0A01971816190684F486
:1013A000082E04C0EE0CFF1C001F111F0A94D2F778
:1013B000ED82FE820F831887C81AD90ADC82CB829D
:1013C000BA82CE0101960E948C0A2896E9E00C941C
:1013D000790CACE0B0E0EFEEF9E00C94640C6983BA
:1013E0007A838B839C83CE010196BE016B5F7F4F16
:1013F0000E94610B8D81823061F1823050F1843026
:1014000021F48E81882351F12EC02F81388537FD3C
:1014100020C06E812F3131051CF06623F9F023C006
:101420008EE190E0821B930B29853A854B855C8584
:1014300004C056954795379527958A95D2F7662328
:10144000B1F050954095309521953F4F4F4F5F4FEC
:101450000EC020E030E040E050E009C02FEF3FEF49
:101460004FEF5FE704C020E030E040E050E8B90112
:10147000CA012C96E2E00C94800CEF92FF920F933D
:101480001F937B018C0180E0E81680E0F80681E084
:10149000080780E0180788F48FEFE816F1040105CB
:1014A000110531F028F088E090E0A0E0B0E017C02E
:1014B00080E090E0A0E0B0E012C080E0E81680E0BC
:1014C000F80680E0080781E0180728F088E190E03E
:1014D000A0E0B0E004C080E190E0A0E0B0E020E255
:1014E00030E040E050E0281B390B4A0B5B0B04C096
:1014F00016950795F794E7948A95D2F7F701E55882
:10150000FE4F8081281B310941095109C9011F91F2
:101510000F91FF90EF900895DF92EF92FF920F935B
:101520001F93FC01E480F58006811781D1808081C2
:10153000823048F480E090E0A0E1B0E0E82AF92AA7
:101540000A2B1B2BA5C0843009F49FC0823021F4E4
:10155000EE24FF24870105C0E114F1040105110503
:1015600019F4E0E0F0E096C0628173819FEF623889
:1015700079070CF05BC022E83FEF261B370B2A31BE
:1015800031052CF020E030E040E050E02AC0B80106
:10159000A701022E04C076956795579547950A9442
:1015A000D2F781E090E0A0E0B0E004C0880F991F7E
:1015B000AA1FBB1F2A95D2F70197A109B1098E2155
:1015C0009F21A023B1230097A105B10521F081E05F
:1015D00090E0A0E0B0E09A01AB01282B392B4A2B18
:1015E0005B2BDA01C9018F779070A070B0708034E6
:1015F0009105A105B10539F427FF09C0205C3F4FD3
:101600004F4F5F4F04C0215C3F4F4F4F5F4FE0E0B3
:10161000F0E02030A0E03A07A0E04A07A0E45A0733
:1016200010F0E1E0F0E079018A0127C0603871052F
:1016300064F5FB01E158FF4FD801C7018F77907027
:10164000A070B07080349105A105B10539F4E7FEB2
:101650000DC080E490E0A0E0B0E004C08FE390E033
:10166000A0E0B0E0E80EF91E0A1F1B1F17FF05C01F
:1016700016950795F794E794319687E016950795A8
:10168000F794E7948A95D1F705C0EE24FF248701EB
:10169000EFEFF0E06E2F679566276795902F9F77A5
:1016A000D794DD24D7948E2F8695492F462B582F1B
:1016B0005D29B701CA011F910F91FF90EF90DF9054
:1016C0000895FC01DB01408151812281622F6F77F7
:1016D00070E0221F2227221F9381892F880F822BDF
:1016E000282F30E0991F9927991F11969C931197E5
:1016F00021153105A9F5411551056105710511F453
:1017000082E037C082E89FEF13969C938E931297E6
:101710009A01AB0167E0220F331F441F551F6A95E2
:10172000D1F783E08C930DC0220F331F441F551F48
:1017300012968D919C911397019713969C938E937B
:101740001297203080E0380780E0480780E458078F
:1017500058F314962D933D934D935C9317970895EA
:101760002F3F310579F4411551056105710519F4D3
:1017700084E08C93089564FF03C081E08C9312C0D1
:101780001C9210C02F57304013963C932E93129703
:1017900083E08C9387E0440F551F661F771F8A955F
:1017A000D1F7706414964D935D936D937C93179766
:1017B00008951F93DC01FB019C91923008F447C00F
:1017C0008081823008F443C0943051F411961C910A
:1017D000843099F58181682F70E0611B71093FC0E9
:1017E000843021F0923031F48230B9F18181882344
:1017F00089F12DC011961C9111978230F1F08181F1
:101800001817D9F412962D913C91139782819381E8
:101810008217930794F028173907BCF014968D911E
:101820009D910D90BC91A02D2481358146815781D9
:10183000281739074A075B0718F4112341F00AC03B
:1018400082179307A407B50740F4112319F061E04C
:1018500070E005C06FEF7FEF02C060E070E0CB0189
:101860001F910895A1E21A2EAA1BBB1BFD010DC0FA
:10187000AA1FBB1FEE1FFF1FA217B307E407F50740
:1018800020F0A21BB30BE40BF50B661F771F881F1C
:10189000991F1A9469F760957095809590959B01B2
:1018A000AC01BD01CF0108952F923F924F925F92FC
:1018B0006F927F928F929F92AF92BF92CF92DF9260
:1018C000EF92FF920F931F93CF93DF93CDB7DEB7C5
:1018D000CA1BDB0B0FB6F894DEBF0FBECDBF099459
:1018E0002A88398848885F846E847D848C849B84B0
:1018F000AA84B984C884DF80EE80FD800C811B81BE
:10190000AA81B981CE0FD11D0FB6F894DEBF0FBEEC
:10191000CDBFED010895FB019F01E8944230C4F072
:101920004532B4F44A3029F497FB1EF49095819522
:101930009F4F642F77270E94BC0C805D8A330CF088
:10194000895D8193CB010097A1F716F45DE2519375
:101950001082C9010C94AC0CDC01FC01672F719161
:101960007723E1F7329704C07C916D937083629185
:10197000AE17BF07C8F30895AA1BBB1B51E107C0F0
:10198000AA1FBB1FA617B70710F0A61BB70B881F0F
:10199000991F5A95A9F780959095BC01CD0108959E
:0419A000F894FFCFE9
:1019A400476573746172742057696C642054687558
:1019B4006D706572000A4A75737420612073696DD5
:1019C400706C6520636F756E7465722070726F67DA
:1019D40072616D0A0A00436F756E7465723A200075
:1019E4002842494E29207C2000284F435429207C3A
:1019F40020002844454329207C20002848455829B4
:101A0400200A00436F756E746572204C3A2000946E
:101A1400034405000000000000000000010202036E
:101A24000303030404040404040404050505050570
:101A3400050505050505050505050506060606064D
:101A44000606060606060606060606060606060632
:101A5400060606060606060606060607070707071D
:101A64000707070707070707070707070707070702
:101A740007070707070707070707070707070707F2
:101A840007070707070707070707070707070707E2
:101A940007070707070707070707070808080808CD
:101AA40008080808080808080808080808080808B2
:101AB40008080808080808080808080808080808A2
:101AC4000808080808080808080808080808080892
:101AD4000808080808080808080808080808080882
:101AE4000808080808080808080808080808080872
:101AF4000808080808080808080808080808080862
:101B04000808080808080808080808080808080851
:0C1B14000808080808080808080808006D
:00000001FF
