:100000000C943E000C945B000C945B000C941C025E
:100010000C9447020C9461020C9413030C94230378
:100020000C945B000C945B000C945B000C945B00E4
:100030000C945B000C945D030C945B000C945B00CF
:100040000C945B000C945B000C945B000C945B00C4
:100050000C945B000C945B000C945B000C945B00B4
:100060000C945B000C945B000C945B000C945B00A4
:100070000C945B000C945B000C945B0011241FBE7D
:10008000CFEFD0E1DEBFCDBF12E0A0E0B1E0E0E80D
:10009000F4E102C005900D92AA30B107D9F712E041
:1000A000AAE0B2E001C01D92A832B107E1F70E94B8
:1000B00031040C943E0A0C94000083E58CBD8091C1
:1000C00021028EBD0DB407FEFDCF1CBC85B185B9E4
:1000D0002E9A80E090E00000019621E08C32920799
:1000E000D1F72E9808950F931F9300E0809121027D
:1000F00081608093210210E00BC0109223021092C5
:10010000220280912202909123020A97D0F302C02A
:1001100024E630E0215030408FEF2F3F380769F759
:100120000E945D0080912102880F809321021F5F51
:10013000163071F70F5F0330C9F68FE38093210209
:100140000E945D0024EF31E00AC010922302109259
:10015000220280912202909123020A97D0F321502B
:1001600030408FEF2F3F380781F7109221020E9415
:100170005D001F910F910895809321020E945D0000
:10018000089580E280937C0084EE80937A00109240
:100190007B000895109278001092790090917C0075
:1001A000907290937C0090917C00982B90937C00AF
:1001B00080E090E00000019621E08C329207D1F7B8
:1001C00080917A00806480937A0080917A0084FF25
:1001D000FCCF80917A00806180937A0080917900D1
:1001E000089580E00E94CA00089583E00E94CA003A
:1001F00090E0AA2797FDA095BA2FBC01CD010E94DF
:1002000060072DEC3CEC4CEC5FE30E9436060E944C
:100210006004DC01CB01089581E00E94CA000895CA
:1002200082E00E94CA00089582E584BD82E085BD17
:1002300082E287BD88BD08951092260210922502A1
:1002400010922702479820E052E132E442E054BD88
:1002500034BD1092230210922202809122029091CA
:1002600023020297D0F344BD34BD109223021092B2
:10027000220280912202909123020297D0F32F5FF5
:100280002E3129F720E030E080912702843038F0C9
:100290003093260220932502479A81E008952F5F2C
:1002A0003F4FC9010197409778F33093260220937E
:1002B0002502479A80E008951092260210922502A6
:1002C00010922702469820E052E132E442E054BD09
:1002D00034BD10922302109222028091220290914A
:1002E00023020297D0F344BD34BD10922302109232
:1002F000220280912202909123020297D0F32F5F75
:100300002E3129F720E030E080912702843038F048
:100310003093260220932502469A81E008952F5FAC
:100320003F4FC9010197409778F3309326022093FD
:100330002502469A80E00895109226021092250226
:10034000109227025E9820E052E132E442E054BD70
:1003500034BD1092230210922202809122029091C9
:1003600023020297D0F344BD34BD109223021092B1
:10037000220280912202909123020297D0F32F5FF4
:100380002E3129F720E030E080912702843038F0C8
:1003900030932602209325025E9A81E008952F5F14
:1003A0003F4FC9010197409778F33093260220937D
:1003B00025025E9A80E0089510922602109225028E
:1003C000109227025D9820E052E132E442E054BDF1
:1003D00034BD109223021092220280912202909149
:1003E00023020297D0F344BD34BD10922302109231
:1003F000220280912202909123020297D0F32F5F74
:100400002E3129F720E030E080912702843038F047
:1004100030932602209325025D9A81E008952F5F94
:100420003F4FC9010197409778F3309326022093FC
:1004300025025D9A80E008951F920F920FB60F92E9
:1004400011248F93809127028F5F809327028F91D1
:100450000F900FBE0F901F901895E8E6F0E0808196
:100460008E6080838BB38BBBEBE6F0E08081808372
:10047000ECE6F0E0808183608083EDE6F0E080814F
:100480008083E3E7F0E080818068808308951F9295
:100490000F920FB60F9211248F93809127028F5FD6
:1004A000809327028F910F900FBE0F901F90189589
:1004B00083B1869580958170089583B18095817010
:1004C000089578941F920F920FB60F9211242F93D4
:1004D0003F934F935F938F939F93189929C0809177
:1004E0000F022091120230911302482F50E05695CE
:1004F0004795409550954170507080E090E02531CF
:10050000310510F081E090E0482B592B80910A02D0
:1005100091E08927842369F110921302109212024C
:1005200080910F02826080930F0290930A0221C093
:1005300020910F028091120290911302269520952E
:10054000217030E0459708F031E0232B30E08091B6
:100550000A0290E028233923232B59F0109213022A
:100560001092120280910F02826080930F0210920B
:100570000A0219992BC080910F0220911402309128
:100580001502482F50E0569547955695479540954A
:1005900050954170507080E090E02531310510F0A9
:1005A00081E090E0482B592B80910B0291E0892744
:1005B000842371F1109215021092140280910F029F
:1005C000846080930F0290930B0222C020910F024F
:1005D0008091140290911502269526952095217000
:1005E00030E0459708F031E0232B30E080910B029A
:1005F00090E028233923232B59F0109215021092F2
:10060000140280910F02846080930F0210920B02FB
:100610009F918F915F914F913F912F910F900FBEBE
:100620000F901F9018951F920F920FB60F921124E2
:100630000F900FBE0F901F90189508959093010191
:100640008093000108951F920F920FB60F9211240C
:100650002F933F934F935F936F937F938F939F93CA
:10066000AF93BF93EF93FF934F9B05C0E0910001C1
:10067000F09101010995FF91EF91BF91AF919F9189
:100680008F917F916F915F914F913F912F910F903B
:100690000FBE0F901F901895109280008AE08093F3
:1006A000810089EF90E090938900809388000895FD
:1006B00082E080936F00789408951F920F920FB696
:1006C0000F9211248F939F93809122029091230285
:1006D00001969093230280932202809124028F5FDF
:1006E0008093240281508A3008F46AC080910F02FE
:1006F00080FF09C0809110029091110201969093A1
:1007000011028093100280910F0281FF09C0809135
:100710001202909113020196909313028093120299
:1007200080910F0282FF09C08091140290911502FE
:100730000196909315028093140280910F0283FF1B
:1007400009C08091160290911702019690931702AA
:100750008093160280910F0284FF09C080911802D5
:10076000909119020196909319028093180280913A
:100770000F0285FF09C080911A0290911B02019619
:1007800090931B0280931A0280910F0286FF09C08A
:1007900080911C0290911D02019690931D028093FE
:1007A0001C0280910F0287FF09C080911E02909168
:1007B0001F02019690931F0280931E021092240242
:1007C0009F918F910F900FBE0F901F9018951092D0
:1007D000230210922202282F30E080912202909171
:1007E000230282179307C8F308959C010CC010924E
:1007F00023021092220280912202909123020A97F2
:10080000D0F3215030402115310589F7089512B8F1
:100810008BE185B98CEF88B981E78BB911B88BEB87
:1008200084B980EC87B98AE78AB95C9A1092800013
:100830008AE08093810089EF90E090938900809313
:10084000880080E280937C0084EE80937A0010928E
:100850007B000E942D0282E080936F007894789450
:1008600008951F9312B88BE185B98CEF88B981E7A1
:100870008BB911B88BEB84B980EC87B98AE78AB958
:100880000E944C030E94580378948FE30E94BC009E
:1008900088EE93E00E94F50380E00E94BC0084EFA4
:1008A00091E00E94F50311E0812F0E94BC00110F1E
:1008B000113208F011E084E690E00E94F503F4CFD5
:1008C000EF92FF920F931F937B018C0120E030E0A9
:1008D00040E05FE40E94300788238CF0C801B70134
:1008E00020E030E040E05FE40E94D8050E94BE07AF
:1008F0009B01AC01205030404040504806C0C80128
:10090000B7010E94BE079B01AC01B901CA011F914A
:100910000F91FF90EF900895A0E0B0E0E2E9F4E0DD
:100920000C94070ADC012B01FA019C91923008F427
:1009300039C1EB018881823008F433C1943069F405
:10094000843009F02FC111969C91119789819817D5
:1009500009F428C1A2E0B1E025C1843009F421C125
:100960008230A9F4923009F01DC19A01AD0188E0EE
:10097000EA010990AE01E90109929E018150C1F797
:10098000E201898111969C918923818308C192306B
:1009900009F407C112962D903C901397EB018A81C0
:1009A0009B811496AD90BD90CD90DC901797EC8014
:1009B000FD800E811F819101281B390BB90137FF82
:1009C00004C066277727621B730B603271050CF039
:1009D00061C0121613066CF537014801062E04C0DB
:1009E00096948794779467940A94D2F721E030E044
:1009F00040E050E004C0220F331F441F551F6A958A
:100A0000D2F721503040404050402E213F2140231A
:100A10005123211531054105510521F021E030E038
:100A200040E050E079018A01E628F72808291929D1
:100A30003CC0232BD1F1260E371E35014601062E70
:100A400004C096948794779467940A94D2F721E02F
:100A500030E040E050E004C0220F331F441F551F18
:100A60006A95D2F721503040404050402A213B2126
:100A70004C215D21211531054105510521F021E071
:100A800030E040E050E059016A01A628B728C828A4
:100A9000D9280BC0821593052CF01C01AA24BB2475
:100AA000650103C0EE24FF24870111969C91D201B9
:100AB00011968C91981709F445C0992339F0A80133
:100AC00097012A193B094C095D0906C0A601950149
:100AD0002E193F09400B510B57FD08C0118233827C
:100AE000228224833583468357831DC081E081831E
:100AF0003382228288279927DC01821B930BA40B67
:100B0000B50B84839583A683B7830DC0220F331F53
:100B1000441F551F248335834683578382819381E5
:100B20000197938382832481358146815781DA013D
:100B3000C9010197A109B1098F5F9F4FAF4FBF4313
:100B400028F30BC0918333822282EA0CFB1C0C1D1C
:100B50001D1DE482F5820683178383E08083248150
:100B600035814681578157FF1AC0C901AA2797FDD1
:100B7000A095BA2F81709070A070B070569547956F
:100B800037952795822B932BA42BB52B84839583A4
:100B9000A683B78382819381019693838283DF0149
:100BA00001C0D201CD01CDB7DEB7E2E10C94230A3A
:100BB000A0E2B0E0EEEDF5E00C94130A69837A83CD
:100BC0008B839C832D833E834F835887E9E0EE2EF1
:100BD000F12CEC0EFD1ECE010196B7010E943609E4
:100BE0008E010F5E1F4FCE010596B8010E94360997
:100BF0008A8991E089278A8BC701B801AE01475ED7
:100C00005F4F0E948C040E946108A096E6E00C945D
:100C10002F0AA0E2B0E0EFE0F6E00C94130A69833B
:100C20007A838B839C832D833E834F835887F9E09F
:100C3000EF2EF12CEC0EFD1ECE010196B7010E94A5
:100C400036098E010F5E1F4FCE010596B8010E9436
:100C50003609C701B801AE01475E5F4F0E948C04A0
:100C60000E946108A096E6E00C942F0AA0E2B0E092
:100C7000ECE3F6E00C94070A69837A838B839C8308
:100C80002D833E834F835887CE010196BE01675F57
:100C90007F4F0E943609CE010596BE016F5E7F4FE1
:100CA0000E9436099985923088F089898230C8F08F
:100CB000943019F4823051F404C0843029F4923015
:100CC00081F482E091E0C6C0923049F420E09A8538
:100CD0008A89981321E02A87CE010996BBC0823009
:100CE00049F420E09A858A89981321E02A8BCE0165
:100CF0004196B0C02D843E844F8458886D887E888C
:100D00008F88988CEE24FF248701AA24BB246501D8
:100D100040E050E060E070E0E0E0F0E0C1018170B0
:100D20009070892BE9F0E60CF71C081D191D9A013B
:100D3000AB012A0D3B1D4C1D5D1D80E090E0A0E045
:100D4000B0E0E614F7040805190520F481E090E00E
:100D5000A0E0B0E0BA01A901480F591F6A1F7B1F2C
:100D6000AA0CBB1CCC1CDD1C97FE08C081E090E0E7
:100D7000A0E0B0E0A82AB92ACA2ADB2A3196E032DC
:100D8000F10549F0660C771C881C991C5694479411
:100D900037942794C3CFFA85EA892B893C898B85C0
:100DA0009C85280F391F2E5F3F4F17C0CA018170E5
:100DB0009070892B61F016950795F794E79480E081
:100DC00090E0A0E0B0E8E82AF92A0A2B1B2B7695E0
:100DD0006795579547952F5F3F4F77FDE7CF0CC03D
:100DE000440F551F661F771F17FD4160EE0CFF1C57
:100DF000001F111F21503040403090E0590790E013
:100E0000690790E4790760F32B8F3C8FDB01CA01FF
:100E10008F779070A070B07080349105A105B105F6
:100E200061F447FD0AC0E114F1040105110529F040
:100E3000405C5F4F6F4F7F4F40781A8EFE1711F066
:100E400081E08A8F4D8F5E8F6F8F78A383E0898FCB
:100E5000CE0149960E946108A096E2E10C94230A13
:100E6000A8E1B0E0E6E3F7E00C94130A69837A8323
:100E70008B839C832D833E834F83588789E0E82EA4
:100E8000F12CEC0EFD1ECE010196B7010E94360931
:100E90008E010F5E1F4FCE010596B8010E943609E4
:100EA0008985823040F08989823028F0C701B801F5
:100EB0000E94AE0901C08FEF6896E6E00C942F0AFD
:100EC000A8E0B0E0E6E6F7E00C94100A9B01AC0164
:100ED00083E08983DA01C9018827B7FD83959927C3
:100EE000AA27BB27B82E211531054105510519F454
:100EF00082E089833AC08823A9F0203080E0380757
:100F000080E0480780E8580729F460E070E080E05E
:100F10009FEC30C0EE24FF248701E21AF30A040B91
:100F2000150B02C079018A018EE1C82ED12CDC821A
:100F3000CB82ED82FE820F831887C801B7010E9421
:100F4000120801971816190684F4082E04C0EE0C36
:100F5000FF1C001F111F0A94D2F7ED82FE820F833F
:100F60001887C81AD90ADC82CB82BA82CE010196D0
:100F70000E9461082896E9E00C942C0AACE0B0E0ED
:100F8000E4ECF7E00C94170A69837A838B839C83E3
:100F9000CE010196BE016B5F7F4F0E9436098D81A5
:100FA000823061F1823050F1843021F48E818823C7
:100FB00051F12EC02F81388537FD20C06E812F3131
:100FC00031051CF06623F9F023C08EE190E0821B0E
:100FD000930B29853A854B855C8504C056954795CA
:100FE000379527958A95D2F76623B1F050954095AD
:100FF000309521953F4F4F4F5F4F0EC020E030E0BE
:1010000040E050E009C02FEF3FEF4FEF5FE704C033
:1010100020E030E040E050E8B901CA012C96E2E05F
:101020000C94330AEF92FF920F931F937B018C0174
:1010300080E0E81680E0F80681E0080780E0180705
:1010400088F48FEFE816F1040105110531F028F05E
:1010500088E090E0A0E0B0E017C080E090E0A0E081
:10106000B0E012C080E0E81680E0F80680E00807F3
:1010700081E0180728F088E190E0A0E0B0E004C02B
:1010800080E190E0A0E0B0E020E230E040E050E01D
:10109000281B390B4A0B5B0B04C016950795F79478
:1010A000E7948A95D2F7F701E65FFE4F8081281B0F
:1010B000310941095109C9011F910F91FF90EF902A
:1010C0000895DF92EF92FF920F931F93FC01E4804B
:1010D000F58006811781D1808081823048F480E0DC
:1010E00090E0A0E1B0E0E82AF92A0A2B1B2BA5C06A
:1010F000843009F49FC0823021F4EE24FF2487015C
:1011000005C0E114F1040105110519F4E0E0F0E077
:1011100096C0628173819FEF623879070CF05BC0E3
:1011200022E83FEF261B370B2A3131052CF020E057
:1011300030E040E050E02AC0B801A701022E04C010
:1011400076956795579547950A94D2F781E090E098
:10115000A0E0B0E004C0880F991FAA1FBB1F2A950A
:10116000D2F70197A109B1098E219F21A023B123B4
:101170000097A105B10521F081E090E0A0E0B0E08A
:101180009A01AB01282B392B4A2B5B2BDA01C901C1
:101190008F779070A070B07080349105A105B10573
:1011A00039F427FF09C0205C3F4F4F4F5F4F04C009
:1011B000215C3F4F4F4F5F4FE0E0F0E02030A0E078
:1011C0003A07A0E04A07A0E45A0710F0E1E0F0E097
:1011D00079018A0127C06038710564F5FB01E15887
:1011E000FF4FD801C7018F779070A070B070803426
:1011F0009105A105B10539F4E7FE0DC080E490E04A
:10120000A0E0B0E004C08FE390E0A0E0B0E0E80E22
:10121000F91E0A1F1B1F17FF05C016950795F794A7
:10122000E794319687E016950795F794E7948A95A9
:10123000D1F705C0EE24FF248701EFEFF0E06E2F19
:10124000679566276795902F9F77D794DD24D7946D
:101250008E2F8695492F462B582F5D29B701CA013D
:101260001F910F91FF90EF90DF900895FC01DB013B
:10127000408151812281622F6F7770E0221F2227E7
:10128000221F9381892F880F822B282F30E0991FEE
:101290009927991F11969C93119721153105A9F54E
:1012A000411551056105710511F482E037C082E8EE
:1012B0009FEF13969C938E9312979A01AB0167E070
:1012C000220F331F441F551F6A95D1F783E08C937B
:1012D0000DC0220F331F441F551F12968D919C91F4
:1012E0001397019713969C938E931297203080E06A
:1012F000380780E0480780E4580758F314962D9388
:101300003D934D935C93179708952F3F310579F4E2
:10131000411551056105710519F484E08C93089518
:1013200064FF03C081E08C9312C01C9210C02F5741
:10133000304013963C932E93129783E08C9387E072
:10134000440F551F661F771F8A95D1F77064149656
:101350004D935D936D937C93179708951F93DC01D4
:10136000FB019C91923008F447C08081823008F4E0
:1013700043C0943051F411961C91843099F58181C9
:10138000682F70E0611B71093FC0843021F09230FA
:1013900031F48230B9F18181882389F12DC0119611
:1013A0001C9111978230F1F081811817D9F41296AF
:1013B0002D913C911397828193818217930794F02A
:1013C00028173907BCF014968D919D910D90BC9112
:1013D000A02D2481358146815781281739074A0776
:1013E0005B0718F4112341F00AC082179307A40782
:1013F000B50740F4112319F061E070E005C06FEF0C
:101400007FEF02C060E070E0CB011F9108952F9242
:101410003F924F925F926F927F928F929F92AF9284
:10142000BF92CF92DF92EF92FF920F931F93CF93D1
:10143000DF93CDB7DEB7CA1BDB0B0FB6F894DEBF68
:101440000FBECDBF09942A88398848885F846E848E
:101450007D848C849B84AA84B984C884DF80EE80D8
:10146000FD800C811B81AA81B981CE0FD11D0FB6E1
:10147000F894DEBF0FBECDBFED010895F894FFCF05
:101480001D03000000000000000000010202030331
:101490000303040404040404040405050505050508
:1014A00005050505050505050505060606060606E6
:1014B00006060606060606060606060606060606CC
:1014C00006060606060606060606070707070707B6
:1014D000070707070707070707070707070707079C
:1014E000070707070707070707070707070707078C
:1014F000070707070707070707070707070707077C
:101500000707070707070707070708080808080865
:10151000080808080808080808080808080808084B
:10152000080808080808080808080808080808083B
:10153000080808080808080808080808080808082B
:10154000080808080808080808080808080808081B
:10155000080808080808080808080808080808080B
:1015600008080808080808080808080808080808FB
:1015700008080808080808080808080808080808EB
:0A1580000808080808080808080811
:00000001FF
