:100000000C943E000C945B000C945B000C94310645
:100010000C945C060C9476060C9428070C94380714
:100020000C945B000C945B000C945B000C945B00E4
:100030000C945B000C9472070C945B000C945B00B6
:100040000C945B000C945B000C945B000C945B00C4
:100050000C945B000C945B000C945B000C945B00B4
:100060000C945B000C945B000C94C0030C945B003C
:100070000C945B000C945B000C945B0011241FBE7D
:10008000CFEFD0E1DEBFCDBF12E0A0E0B1E0E6E30C
:10009000FCE102C005900D92AE30B107D9F712E035
:1000A000AEE0B2E001C01D92A43BB107E1F70E94AF
:1000B0008C000C94190E0C94000080910F028F5F3D
:1000C00080930F0210920E020895FF920F931F93D8
:1000D000FF24F39410E100E0103811F4FF2404C071
:1000E000103121F0FF2021F4169503C0FF24F39472
:1000F000110F8AE060E04CE1212F0E940F0388EC91
:1001000090E00E940A080F5F073031F780E090E02E
:100110001F910F91FF90089512B88BE185B98CEF74
:1001200088B981E78BB911B88BEB84B980EC87B9BA
:100130008AE78AB90E9461078AE20E94E3000E946E
:100140006D0778948DE590E00E94FC0089EC90E0CA
:100150000E94F60083ED90E00E9433078091A00298
:1001600088608093A0028091A00280618093A002A9
:100170008FE30E94990488EE93E00E940A0880E0D1
:100180000E94990484EF91E00E940A080E94650091
:10019000FDCF882339F481E692E064E10E94D40126
:1001A00010920E02089580910E02882359F44F9BFD
:1001B00009C081E080930E028AE060E040E024E123
:1001C0000E94AF010895F8948093B8001092B9008E
:1001D0008FEF8093BB0084E08093BC00809110027D
:1001E000816080931002789408950895909301019E
:1001F0008093000108950895909303018093020174
:100200000895DF93CF930F92CDB7DEB786E9898348
:100210008981815089838F5FD9F70F90CF91DF91CA
:100220000895DF93CF930F92CDB7DEB78091BC00D6
:1002300080FD71C08091100280FF50C08091170234
:10024000882309F468C08130D1F486E989838981E3
:10025000815089838F5FD9F792E090935902809102
:100260001202809319028091130280931A02109255
:10027000100285EA8093BC00909317024CC0823034
:10028000E1F486E989838981815089838F5FD9F779
:10029000809114028F5F80935902809112028160D5
:1002A00080931202809319021092100285EA8093C3
:1002B000BC0083E0809317022EC0833061F510925A
:1002C000170280911502909116022FEF8F3F92072F
:1002D00011F1E0910001F09101011CC08091BC007E
:1002E00080FDFCCF909111029923A9F01092170282
:1002F000809110028160809310021092120210927D
:1003000016021092150210921402E0910201F0916F
:100310000301892F09950F90CF91DF910895FF92E6
:100320000F931F93182F062FF42E02C00E94110165
:100330008091BC0080FDFACF809117028823B1F72D
:1003400082E080931702109312020093150210921C
:100350001602F09214021F910F91FF900895EF92F0
:10036000FF920F931F93E82E162F042FF22E02C038
:100370000E9411018091BC0080FDFACF809117028C
:100380008823B1F781E08093170210931502109231
:100390001602E092120200931302F09214021F91CF
:1003A0000F91FF90EF9008959C018091BC0080FD1B
:1003B000FCCF8091100280FF0CC0EAE2F2E0D9018C
:1003C00070E06E0F7F1F02C081918D93E617F707D3
:1003D000D9F708958091BC0080FDFCCF8091110277
:1003E0000895FF920F931F93CF93DF93082FF62E5C
:1003F000EA01122F02C00E9411018091BC0080FD11
:10040000FACF809117028823B1F781E08093170219
:10041000009312028FEF9FEF9093160280931502C4
:10042000F09213021093140202C00E9411018091F5
:10043000BC0080FDFACF809117028823B1F780912C
:10044000100280FF05C01F5FCE01612F0E94D40102
:10045000DF91CF911F910F91FF900895EF92FF923E
:100460000F931F93DF93CF930F92CDB7DEB7082F73
:100470007B01142F02C00E9411018091BC0080FDFD
:10048000FACF809117028823B1F786E989838981A1
:10049000815089838F5FD9F782E0809317020093A0
:1004A00012028FEF9FEF9093160280931502109324
:1004B000140202C00E9411018091BC0080FDFACF9D
:1004C000809117028823B1F78091100280FF05C048
:1004D0001F5FC701612F0E94D4010F90CF91DF9160
:1004E0001F910F91FF90EF9008951F93DF93CF938B
:1004F0000F92CDB7DEB7182F02C00E941101809174
:10050000BC0080FDFACF809117028823B1F786E9FD
:1005100089838981815089838F5FD9F782E08093B5
:100520001702109312028FEF9FEF909316028093A1
:10053000150281E08093140202C00E941101809193
:1005400017028823D1F78091100280FD02C080E05D
:1005500002C080912A020F90CF91DF911F910895E0
:100560000F931F93DF93CF930F92CDB7DEB7182F62
:10057000062F02C00E9411018091BC0080FDFACFBD
:10058000809117028823B1F786E989838981815098
:1005900089838F5FD9F782E0809359021093190203
:1005A00000931A021092100285EA8093BC000F900B
:1005B000CF91DF911F910F910895FF920F931F9399
:1005C000DF93CF930F92CDB7DEB7182F062FF42EFF
:1005D00002C00E9411018091BC0080FDFACF809181
:1005E00017028823B1F786E989838981815089833D
:1005F0008F5FD9F783E0809359021093190200931B
:100600001A02F0921B021092100285EA8093BC003D
:100610000F90CF91DF911F910F91FF900895EF926E
:10062000FF920F931F93DF93CF930F92CDB7DEB757
:10063000182F062FF42EE22E02C00E941101809185
:10064000BC0080FDFACF809117028823B1F786E9BC
:1006500089838981815089838F5FD9F784E0809372
:1006600059021093190200931A02F0921B02E092B1
:100670001C021092100285EA8093BC000F90CF916B
:10068000DF911F910F91FF90EF900895DF92EF920D
:10069000FF920F931F93DF93CF930F92CDB7DEB7E7
:1006A000182FF62EE42ED22E02C00E941101809146
:1006B000BC0080FDFACF809117028823B1F786E94C
:1006C00089838981815089838F5FD9F785E0809301
:1006D000590210931902F0921A02E0921B02D09272
:1006E0001C0200931D021092100285EA8093BC0048
:1006F0000F90CF91DF911F910F91FF90EF90DF90BE
:100700000895EF92FF920F931F93DF93CF930F9271
:10071000CDB7DEB7082FF62EE72E142F02C00E94A9
:1007200011018091BC0080FDFACF809117028823CF
:10073000B1F786E989838981815089838F5FD9F7F1
:10074000412F4F5F4093590200931902AAE1B2E092
:100750008F2D9E2D9C01F90102C081918D938E2FCA
:100760008F198417D0F31092100285EA8093BC0091
:100770000F90CF91DF911F910F91FF90EF9008950F
:100780001F920F920FB60F9211242F933F938F93C6
:100790009F93EF93FF938091B9008832D1F0893213
:1007A00040F48031A1F08831A1F0883009F050C0C8
:1007B0000EC0803459F1813420F4883309F048C0E8
:1007C00041C08035B9F0883509F042C02DC0109283
:1007D00018029091180280915902981768F5E92F34
:1007E000F0E0E75EFD4F80818093BB009F5F9093B8
:1007F000180218C0809118029091BB00E82FF0E019
:10080000E75DFD4F90838F5F80931802209118025F
:1008100030E08091590290E001972817390714F4CD
:1008200085EC1BC085E819C08091BB00E0911802DF
:10083000F0E0E75DFD4F808380911002816080933E
:1008400010020AC08091B9008093110285EA05C0A8
:100850008091B9008093110284E98093BC00FF91DC
:10086000EF919F918F913F912F910F900FBE0F901D
:100870001F90189583E58CBD809160028EBD0DB4EC
:1008800007FEFDCF1CBC85B185B92E9A80E090E0B3
:100890000000019621E08C329207D1F72E9808953E
:1008A0000F931F9300E0809160028160809360024B
:1008B00010E00BC01092B2021092B1028091B1020E
:1008C0009091B2020A97D0F302C024E630E02150A2
:1008D00030408FEF2F3F380769F70E943A0480912C
:1008E0006002880F809360021F5F163071F70F5F00
:1008F0000330C9F68FE3809360020E943A0424EF2C
:1009000031E00AC01092B2021092B1028091B1029D
:100910009091B2020A97D0F3215030408FEF2F3FD1
:10092000380781F7109260020E943A041F910F91DC
:100930000895809360020E943A04089580E28093B3
:100940007C0084EE80937A0010927B0008951092D0
:1009500078001092790090917C00907290937C00C6
:1009600090917C00982B90937C0080E090E00000B8
:10097000019621E08C329207D1F780917A00806451
:1009800080937A0080917A0084FFFCCF80917A0076
:10099000806180937A0080917900089580E00E94C0
:1009A000A704089583E00E94A70490E0AA2797FD7A
:1009B000A095BA2FBC01CD010E943B0B2DEC3CEC65
:1009C0004CEC5FE30E94110A0E943B08DC01CB0162
:1009D000089581E00E94A704089582E00E94A70480
:1009E000089582E584BD82E085BD82E287BD88BD31
:1009F000089510928A021092890210928B024798F1
:100A000020E052E132E442E054BD34BD1092B20223
:100A10001092B1028091B1029091B2024497D0F34A
:100A200044BD34BD1092B2021092B1028091B10265
:100A30009091B2024497D0F32F5F243129F720E040
:100A400030E080918B02843070F030938A022093E2
:100A50008902809160028860809360020E943A045B
:100A6000479A81E008952F5F3F4FC9010197409752
:100A700040F330938A022093890280916002877F3D
:100A8000809360020E943A04479A80E00895109291
:100A90008A021092890210928B02469820E052E15D
:100AA00032E442E054BD34BD1092B2021092B10261
:100AB0008091B1029091B2024497D0F344BD34BD0D
:100AC0001092B2021092B1028091B1029091B202E2
:100AD0004497D0F32F5F243129F720E030E0809154
:100AE0008B02843070F030938A02209389028091C7
:100AF00060028460809360020E943A04469A81E01A
:100B000008952F5F3F4FC9010197409740F33093FD
:100B10008A0220938902809160028B7F8093600219
:100B20000E943A04469A80E0089510928A02109238
:100B3000890210928B025E9820E052E132E442E09A
:100B400054BD34BD1092B2021092B1028091B10234
:100B50009091B2024497D0F344BD34BD1092B202DA
:100B60001092B1028091B1029091B2024497D0F3F9
:100B70002F5F243129F720E030E080918B0285300F
:100B800070F030938A022093890280916002826023
:100B9000809360020E943A045E9A81E008952F5F7C
:100BA0003F4FC9010197409740F330938A02209349
:100BB0008902809160028D7F809360020E943A04D6
:100BC0005E9A80E0089510928A0210928902109233
:100BD0008B025D9820E052E132E442E054BD34BD26
:100BE0001092B2021092B1028091B1029091B202C1
:100BF0004497D0F344BD34BD1092B2021092B102BA
:100C00008091B1029091B2024497D0F32F5F2431CA
:100C100029F720E030E080918B02853070F030932E
:100C20008A02209389028091600281608093600231
:100C30000E943A045D9A81E008952F5F3F4FC901F9
:100C40000197409740F330938A0220938902809164
:100C500060028E7F809360020E943A045D9A80E079
:100C600008951F920F920FB60F9211248F938091C7
:100C70008B028F5F80938B028F910F900FBE0F902E
:100C80001F901895E8E6F0E080818E6080838BB33A
:100C90008BBBEBE6F0E080818083ECE6F0E08081C6
:100CA00083608083EDE6F0E080818083E3E7F0E01D
:100CB00080818068808308951F920F920FB60F92F3
:100CC00011248F9380918B028F5F80938B028F9181
:100CD0000F900FBE0F901F90189583B18695809549
:100CE0008170089583B180958170089578941F92E2
:100CF0000F920FB60F9211242F933F934F935F9350
:100D00008F939F93189929C08091A0022091A302EC
:100D10003091A402482F50E0569547954095509544
:100D20004170507080E090E02531310510F081E095
:100D300090E0482B592B80915A0291E08927842317
:100D400069F11092A4021092A3028091A002826025
:100D50008093A00290935A0221C02091A00280911A
:100D6000A3029091A40226952095217030E045972A
:100D700008F031E0232B30E080915A0290E02823E4
:100D80003923232B59F01092A4021092A3028091D0
:100D9000A00282608093A00210925A0219992BC07F
:100DA0008091A0022091A5023091A602482F50E028
:100DB000569547955695479540955095417050707A
:100DC00080E090E02531310510F081E090E0482B83
:100DD000592B80915B0291E08927842371F1109255
:100DE000A6021092A5028091A00284608093A002C6
:100DF00090935B0222C02091A0028091A502909165
:100E0000A602269526952095217030E0459708F09A
:100E100031E0232B30E080915B0290E028233923DE
:100E2000232B59F01092A6021092A5028091A002E5
:100E300084608093A00210925B029F918F915F91DA
:100E40004F913F912F910F900FBE0F901F901895CB
:100E50001F920F920FB60F9211240F900FBE0F909A
:100E60001F901895089590930501809304010895AB
:100E70001F920F920FB60F9211242F933F934F930F
:100E80005F936F937F938F939F93AF93BF93EF93F2
:100E9000FF934F9B05C0E0910401F0910501099576
:100EA000FF91EF91BF91AF919F918F917F916F9142
:100EB0005F914F913F912F910F900FBE0F901F9018
:100EC0001895109280008AE08093810089EF90E06D
:100ED0009093890080938800089582E080936F004A
:100EE000789408951F920F920FB60F9211248F934A
:100EF0009F938091B1029091B20201969093B202B9
:100F00008093B1028091B3028F5F8093B3028150CE
:100F10008A3008F46AC08091A00280FF09C08091E5
:100F2000A1029091A20201969093A2028093A10245
:100F30008091A00281FF09C08091A3029091A40238
:100F400001969093A4028093A3028091A00282FF55
:100F500009C08091A5029091A60201969093A602E5
:100F60008093A5028091A00283FF09C08091A7020F
:100F70009091A80201969093A8028093A702809175
:100F8000A00284FF09C08091A9029091AA02019653
:100F90009093AA028093A9028091A00285FF09C0C4
:100FA0008091AB029091AC0201969093AC02809339
:100FB000AB028091A00286FF09C08091AD029091A2
:100FC000AE0201969093AE028093AD028091A00292
:100FD00087FF09C08091AF029091B0020196909373
:100FE000B0028093AF021092B3029F918F910F9045
:100FF0000FBE0F901F9018951092B2021092B1027E
:10100000282F30E08091B1029091B20282179307AD
:10101000C8F308959C010CC01092B2021092B10264
:101020008091B1029091B2020A97D0F321503040E2
:101030002115310589F7089512B88BE185B98CEF38
:1010400088B981E78BB911B88BEB84B980EC87B98B
:101050008AE78AB9109280008AE08093810089EF44
:1010600090E0909389008093880082E080936F00E5
:10107000789478940895EF92FF920F931F937B01D9
:101080008C0120E030E040E05FE40E940B0B8823FD
:101090008CF0C801B70120E030E040E05FE40E943E
:1010A000B3090E94990B9B01AC0120503040404095
:1010B000504806C0C801B7010E94990B9B01AC01C2
:1010C000B901CA011F910F91FF90EF900895A0E020
:1010D000B0E0EDE6F8E00C94E20DDC012B01FA0142
:1010E0009C91923008F439C1EB018881823008F478
:1010F00033C1943069F4843009F02FC111969C916A
:1011000011978981981709F428C1A6E0B1E025C19B
:10111000843009F421C18230A9F4923009F01DC154
:101120009A01AD0188E0EA010990AE01E901099256
:101130009E018150C1F7E201898111969C9189231A
:10114000818308C1923009F407C112962D903C901A
:101150001397EB018A819B811496AD90BD90CD9041
:10116000DC901797EC80FD800E811F819101281B78
:10117000390BB90137FF04C066277727621B730B51
:10118000603271050CF061C0121613066CF5370160
:101190004801062E04C096948794779467940A9425
:1011A000D2F721E030E040E050E004C0220F331FCE
:1011B000441F551F6A95D2F721503040404050409F
:1011C0002E213F2140235123211531054105510591
:1011D00021F021E030E040E050E079018A01E6288A
:1011E000F728082919293CC0232BD1F1260E371ED8
:1011F00035014601062E04C096948794779467942F
:101200000A94D2F721E030E040E050E004C0220F21
:10121000331F441F551F6A95D2F72150304040407C
:1012200050402A213B214C215D21211531054105EA
:10123000510521F021E030E040E050E059016A0121
:10124000A628B728C828D9280BC0821593052CF0EA
:101250001C01AA24BB24650103C0EE24FF248701DE
:1012600011969C91D20111968C91981709F445C062
:10127000992339F0A80197012A193B094C095D0906
:1012800006C0A60195012E193F09400B510B57FDD1
:1012900008C0118233822282248335834683578398
:1012A0001DC081E081833382228288279927DC0157
:1012B000821B930BA40BB50B84839583A683B78302
:1012C0000DC0220F331F441F551F248335834683CF
:1012D000578382819381019793838283248135810F
:1012E00046815781DA01C9010197A109B1098F5FD0
:1012F0009F4FAF4FBF4328F30BC0918333822282AD
:10130000EA0CFB1C0C1D1D1DE482F582068317836D
:1013100083E08083248135814681578157FF1AC03D
:10132000C901AA2797FDA095BA2F81709070A0706F
:10133000B0705695479537952795822B932BA42B04
:10134000B52B84839583A683B7838281938101968D
:1013500093838283DF0101C0D201CD01CDB7DEB717
:10136000E2E10C94FE0DA0E2B0E0E9EBF9E00C94B0
:10137000EE0D69837A838B839C832D833E834F8319
:101380005887E9E0EE2EF12CEC0EFD1ECE01019601
:10139000B7010E94110D8E010F5E1F4FCE01059601
:1013A000B8010E94110D8A8991E089278A8BC701B3
:1013B000B801AE01475E5F4F0E9467080E943C0C77
:1013C000A096E6E00C940A0EA0E2B0E0EAEEF9E0A6
:1013D0000C94EE0D69837A838B839C832D833E83EB
:1013E0004F835887F9E0EF2EF12CEC0EFD1ECE0155
:1013F0000196B7010E94110D8E010F5E1F4FCE01A5
:101400000596B8010E94110DC701B801AE01475EF3
:101410005F4F0E9467080E943C0CA096E6E00C9487
:101420000A0EA0E2B0E0E7E1FAE00C94E20D698375
:101430007A838B839C832D833E834F835887CE0191
:101440000196BE01675F7F4F0E94110DCE01059688
:10145000BE016F5E7F4F0E94110D9985923088F01A
:1014600089898230C8F0943019F4823051F404C074
:10147000843029F4923081F486E091E0C6C0923045
:1014800049F420E09A858A89981321E02A87CE01C1
:101490000996BBC0823049F420E09A858A89981366
:1014A00021E02A8BCE014196B0C02D843E844F842A
:1014B00058886D887E888F88988CEE24FF24870159
:1014C000AA24BB24650140E050E060E070E0E0E069
:1014D000F0E0C10181709070892BE9F0E60CF71CF7
:1014E000081D191D9A01AB012A0D3B1D4C1D5D1DE8
:1014F00080E090E0A0E0B0E0E614F70408051905EC
:1015000020F481E090E0A0E0B0E0BA01A901480F2A
:10151000591F6A1F7B1FAA0CBB1CCC1CDD1C97FE2D
:1015200008C081E090E0A0E0B0E0A82AB92ACA2A69
:10153000DB2A3196E032F10549F0660C771C881CF5
:10154000991C5694479437942794C3CFFA85EA8917
:101550002B893C898B859C85280F391F2E5F3F4F37
:1015600017C0CA0181709070892B61F0169507959C
:10157000F794E79480E090E0A0E0B0E8E82AF92A48
:101580000A2B1B2B76956795579547952F5F3F4FF5
:1015900077FDE7CF0CC0440F551F661F771F17FD5F
:1015A0004160EE0CFF1C001F111F215030404030E5
:1015B00090E0590790E0690790E4790760F32B8F7A
:1015C0003C8FDB01CA018F779070A070B0708034BF
:1015D0009105A105B10561F447FD0AC0E114F104CC
:1015E0000105110529F0405C5F4F6F4F7F4F407838
:1015F0001A8EFE1711F081E08A8F4D8F5E8F6F8FEC
:1016000078A383E0898FCE0149960E943C0CA09676
:10161000E2E10C94FE0DA8E1B0E0E1E1FBE00C9406
:10162000EE0D69837A838B839C832D833E834F8366
:10163000588789E0E82EF12CEC0EFD1ECE010196B4
:10164000B7010E94110D8E010F5E1F4FCE0105964E
:10165000B8010E94110D8985823040F0898982305D
:1016600028F0C701B8010E94890D01C08FEF68966C
:10167000E6E00C940A0EA8E0B0E0E1E4FBE00C9494
:10168000EB0D9B01AC0183E08983DA01C901882756
:10169000B7FD83959927AA27BB27B82E21153105B9
:1016A0004105510519F482E089833AC08823A9F0E5
:1016B000203080E0380780E0480780E8580729F4A8
:1016C00060E070E080E09FEC30C0EE24FF248701F2
:1016D000E21AF30A040B150B02C079018A018EE1AC
:1016E000C82ED12CDC82CB82ED82FE820F8318873C
:1016F000C801B7010E94ED0B01971816190684F472
:10170000082E04C0EE0CFF1C001F111F0A94D2F714
:10171000ED82FE820F831887C81AD90ADC82CB8239
:10172000BA82CE0101960E943C0C2896E9E00C9406
:10173000070EACE0B0E0EFE9FBE00C94F20D69833A
:101740007A838B839C83CE010196BE016B5F7F4FB2
:101750000E94110D8D81823061F1823050F1843010
:1017600021F48E81882351F12EC02F81388537FDD9
:1017700020C06E812F3131051CF06623F9F023C0A3
:101780008EE190E0821B930B29853A854B855C8521
:1017900004C056954795379527958A95D2F76623C5
:1017A000B1F050954095309521953F4F4F4F5F4F89
:1017B0000EC020E030E040E050E009C02FEF3FEFE6
:1017C0004FEF5FE704C020E030E040E050E8B901AF
:1017D000CA012C96E2E00C940E0EEF92FF920F934A
:1017E0001F937B018C0180E0E81680E0F80681E021
:1017F000080780E0180788F48FEFE816F104010568
:10180000110531F028F088E090E0A0E0B0E017C0CA
:1018100080E090E0A0E0B0E012C080E0E81680E058
:10182000F80680E0080781E0180728F088E190E0DA
:10183000A0E0B0E004C080E190E0A0E0B0E020E2F1
:1018400030E040E050E0281B390B4A0B5B0B04C032
:1018500016950795F794E7948A95D2F7F701E25F1A
:10186000FE4F8081281B310941095109C9011F918F
:101870000F91FF90EF900895DF92EF92FF920F93F8
:101880001F93FC01E480F58006811781D18080815F
:10189000823048F480E090E0A0E1B0E0E82AF92A44
:1018A0000A2B1B2BA5C0843009F49FC0823021F481
:1018B000EE24FF24870105C0E114F10401051105A0
:1018C00019F4E0E0F0E096C0628173819FEF623826
:1018D00079070CF05BC022E83FEF261B370B2A315B
:1018E00031052CF020E030E040E050E02AC0B801A3
:1018F000A701022E04C076956795579547950A94DF
:10190000D2F781E090E0A0E0B0E004C0880F991F1A
:10191000AA1FBB1F2A95D2F70197A109B1098E21F1
:101920009F21A023B1230097A105B10521F081E0FB
:1019300090E0A0E0B0E09A01AB01282B392B4A2BB4
:101940005B2BDA01C9018F779070A070B070803482
:101950009105A105B10539F427FF09C0205C3F4F6F
:101960004F4F5F4F04C0215C3F4F4F4F5F4FE0E050
:10197000F0E02030A0E03A07A0E04A07A0E45A07D0
:1019800010F0E1E0F0E079018A0127C060387105CC
:1019900064F5FB01E158FF4FD801C7018F779070C4
:1019A000A070B07080349105A105B10539F4E7FE4F
:1019B0000DC080E490E0A0E0B0E004C08FE390E0D0
:1019C000A0E0B0E0E80EF91E0A1F1B1F17FF05C0BC
:1019D00016950795F794E794319687E01695079545
:1019E000F794E7948A95D1F705C0EE24FF24870188
:1019F000EFEFF0E06E2F679566276795902F9F7742
:101A0000D794DD24D7948E2F8695492F462B582FB7
:101A10005D29B701CA011F910F91FF90EF90DF90F0
:101A20000895FC01DB01408151812281622F6F7793
:101A300070E0221F2227221F9381892F880F822B7B
:101A4000282F30E0991F9927991F11969C93119781
:101A500021153105A9F5411551056105710511F4EF
:101A600082E037C082E89FEF13969C938E93129783
:101A70009A01AB0167E0220F331F441F551F6A957F
:101A8000D1F783E08C930DC0220F331F441F551FE5
:101A900012968D919C911397019713969C938E9318
:101AA0001297203080E0380780E0480780E458072C
:101AB00058F314962D933D934D935C931797089587
:101AC0002F3F310579F4411551056105710519F470
:101AD00084E08C93089564FF03C081E08C9312C06E
:101AE0001C9210C02F57304013963C932E931297A0
:101AF00083E08C9387E0440F551F661F771F8A95FC
:101B0000D1F7706414964D935D936D937C93179702
:101B100008951F93DC01FB019C91923008F447C0AB
:101B20008081823008F443C0943051F411961C91A6
:101B3000843099F58181682F70E0611B71093FC085
:101B4000843021F0923031F48230B9F181818823E0
:101B500089F12DC011961C9111978230F1F081818D
:101B60001817D9F412962D913C9113978281938185
:101B70008217930794F028173907BCF014968D91BB
:101B80009D910D90BC91A02D248135814681578176
:101B9000281739074A075B0718F4112341F00AC0D8
:101BA00082179307A407B50740F4112319F061E0E9
:101BB00070E005C06FEF7FEF02C060E070E0CB0126
:101BC0001F9108952F923F924F925F926F927F9252
:101BD0008F929F92AF92BF92CF92DF92EF92FF923D
:101BE0000F931F93CF93DF93CDB7DEB7CA1BDB0BE9
:101BF0000FB6F894DEBF0FBECDBF09942A8839888E
:101C000048885F846E847D848C849B84AA84B98494
:101C1000C884DF80EE80FD800C811B81AA81B981A0
:101C2000CE0FD11D0FB6F894DEBF0FBECDBFED01B4
:061C30000895F894FFCFB7
:101C3600F500FB0032070000000000000000000174
:101C46000202030303030404040404040404050554
:101C5600050505050505050505050505050506062C
:101C6600060606060606060606060606060606060E
:101C760006060606060606060606060606060707FC
:101C860007070707070707070707070707070707DE
:101C960007070707070707070707070707070707CE
:101CA60007070707070707070707070707070707BE
:101CB60007070707070707070707070707070808AC
:101CC600080808080808080808080808080808088E
:101CD600080808080808080808080808080808087E
:101CE600080808080808080808080808080808086E
:101CF600080808080808080808080808080808085E
:101D0600080808080808080808080808080808084D
:101D1600080808080808080808080808080808083D
:101D2600080808080808080808080808080808082D
:0E1D360008080808080808080808080808082F
:00000001FF
